{
  "abi": [
    {
      "inputs": [
        {
          "internalType": "address",
          "name": "_owner",
          "type": "address"
        },
        {
          "internalType": "uint256",
          "name": "_rewardsPerBlock",
          "type": "uint256"
        },
        {
          "internalType": "uint256",
          "name": "_startBlock",
          "type": "uint256"
        },
        {
          "internalType": "contract ERC20",
          "name": "_rewardToken",
          "type": "address"
        }
      ],
      "stateMutability": "nonpayable",
      "type": "constructor"
    },
    {
      "anonymous": false,
      "inputs": [
        {
          "indexed": true,
          "internalType": "address",
          "name": "user",
          "type": "address"
        },
        {
          "indexed": true,
          "internalType": "uint256",
          "name": "pid",
          "type": "uint256"
        },
        {
          "indexed": false,
          "internalType": "uint256",
          "name": "amount",
          "type": "uint256"
        }
      ],
      "name": "Deposit",
      "type": "event"
    },
    {
      "anonymous": false,
      "inputs": [
        {
          "indexed": true,
          "internalType": "address",
          "name": "user",
          "type": "address"
        },
        {
          "indexed": true,
          "internalType": "uint256",
          "name": "pid",
          "type": "uint256"
        },
        {
          "indexed": false,
          "internalType": "uint256",
          "name": "amount",
          "type": "uint256"
        }
      ],
      "name": "EmergencyWithdraw",
      "type": "event"
    },
    {
      "anonymous": false,
      "inputs": [
        {
          "indexed": true,
          "internalType": "address",
          "name": "user",
          "type": "address"
        },
        {
          "indexed": true,
          "internalType": "address",
          "name": "newOwner",
          "type": "address"
        }
      ],
      "name": "OwnershipTransferred",
      "type": "event"
    },
    {
      "anonymous": false,
      "inputs": [
        {
          "indexed": true,
          "internalType": "address",
          "name": "user",
          "type": "address"
        },
        {
          "indexed": false,
          "internalType": "uint256",
          "name": "amount",
          "type": "uint256"
        }
      ],
      "name": "RewardPaid",
      "type": "event"
    },
    {
      "anonymous": false,
      "inputs": [
        {
          "indexed": true,
          "internalType": "address",
          "name": "user",
          "type": "address"
        },
        {
          "indexed": true,
          "internalType": "uint256",
          "name": "pid",
          "type": "uint256"
        },
        {
          "indexed": false,
          "internalType": "uint256",
          "name": "amount",
          "type": "uint256"
        }
      ],
      "name": "Withdraw",
      "type": "event"
    },
    {
      "inputs": [
        {
          "internalType": "uint256",
          "name": "_allocPoint",
          "type": "uint256"
        },
        {
          "internalType": "contract ERC20",
          "name": "_lpToken",
          "type": "address"
        },
        {
          "internalType": "bool",
          "name": "_withUpdate",
          "type": "bool"
        },
        {
          "internalType": "uint256",
          "name": "_lastRewardBlock",
          "type": "uint256"
        }
      ],
      "name": "add",
      "outputs": [],
      "stateMutability": "nonpayable",
      "type": "function"
    },
    {
      "inputs": [
        {
          "internalType": "uint256",
          "name": "_pid",
          "type": "uint256"
        },
        {
          "internalType": "address",
          "name": "_user",
          "type": "address"
        }
      ],
      "name": "balanceOf",
      "outputs": [
        {
          "internalType": "uint256",
          "name": "",
          "type": "uint256"
        }
      ],
      "stateMutability": "view",
      "type": "function"
    },
    {
      "inputs": [
        {
          "internalType": "uint256",
          "name": "_pid",
          "type": "uint256"
        },
        {
          "internalType": "uint256",
          "name": "_amount",
          "type": "uint256"
        }
      ],
      "name": "deposit",
      "outputs": [],
      "stateMutability": "nonpayable",
      "type": "function"
    },
    {
      "inputs": [
        {
          "internalType": "uint256",
          "name": "_pid",
          "type": "uint256"
        }
      ],
      "name": "emergencyWithdraw",
      "outputs": [],
      "stateMutability": "nonpayable",
      "type": "function"
    },
    {
      "inputs": [],
      "name": "massUpdatePools",
      "outputs": [],
      "stateMutability": "nonpayable",
      "type": "function"
    },
    {
      "inputs": [],
      "name": "owner",
      "outputs": [
        {
          "internalType": "address",
          "name": "",
          "type": "address"
        }
      ],
      "stateMutability": "view",
      "type": "function"
    },
    {
      "inputs": [
        {
          "internalType": "uint256",
          "name": "_pid",
          "type": "uint256"
        },
        {
          "internalType": "address",
          "name": "_user",
          "type": "address"
        }
      ],
      "name": "pendingRewards",
      "outputs": [
        {
          "internalType": "uint256",
          "name": "",
          "type": "uint256"
        }
      ],
      "stateMutability": "view",
      "type": "function"
    },
    {
      "inputs": [
        {
          "internalType": "uint256",
          "name": "",
          "type": "uint256"
        }
      ],
      "name": "poolInfo",
      "outputs": [
        {
          "internalType": "contract ERC20",
          "name": "lpToken",
          "type": "address"
        },
        {
          "internalType": "uint256",
          "name": "allocPoint",
          "type": "uint256"
        },
        {
          "internalType": "uint256",
          "name": "lastRewardBlock",
          "type": "uint256"
        },
        {
          "internalType": "uint256",
          "name": "accRewardsPerShare",
          "type": "uint256"
        }
      ],
      "stateMutability": "view",
      "type": "function"
    },
    {
      "inputs": [],
      "name": "poolLength",
      "outputs": [
        {
          "internalType": "uint256",
          "name": "",
          "type": "uint256"
        }
      ],
      "stateMutability": "view",
      "type": "function"
    },
    {
      "inputs": [],
      "name": "rewardToken",
      "outputs": [
        {
          "internalType": "contract ERC20",
          "name": "",
          "type": "address"
        }
      ],
      "stateMutability": "view",
      "type": "function"
    },
    {
      "inputs": [],
      "name": "rewardsPerBlock",
      "outputs": [
        {
          "internalType": "uint256",
          "name": "",
          "type": "uint256"
        }
      ],
      "stateMutability": "view",
      "type": "function"
    },
    {
      "inputs": [
        {
          "internalType": "uint256",
          "name": "_pid",
          "type": "uint256"
        },
        {
          "internalType": "uint256",
          "name": "_allocPoint",
          "type": "uint256"
        }
      ],
      "name": "set",
      "outputs": [],
      "stateMutability": "nonpayable",
      "type": "function"
    },
    {
      "inputs": [],
      "name": "startBlock",
      "outputs": [
        {
          "internalType": "uint256",
          "name": "",
          "type": "uint256"
        }
      ],
      "stateMutability": "view",
      "type": "function"
    },
    {
      "inputs": [],
      "name": "totalAllocPoint",
      "outputs": [
        {
          "internalType": "uint256",
          "name": "",
          "type": "uint256"
        }
      ],
      "stateMutability": "view",
      "type": "function"
    },
    {
      "inputs": [
        {
          "internalType": "address",
          "name": "newOwner",
          "type": "address"
        }
      ],
      "name": "transferOwnership",
      "outputs": [],
      "stateMutability": "nonpayable",
      "type": "function"
    },
    {
      "inputs": [
        {
          "internalType": "uint256",
          "name": "_pid",
          "type": "uint256"
        }
      ],
      "name": "updatePool",
      "outputs": [],
      "stateMutability": "nonpayable",
      "type": "function"
    },
    {
      "inputs": [
        {
          "internalType": "uint256",
          "name": "",
          "type": "uint256"
        },
        {
          "internalType": "address",
          "name": "",
          "type": "address"
        }
      ],
      "name": "userInfo",
      "outputs": [
        {
          "internalType": "uint256",
          "name": "amount",
          "type": "uint256"
        },
        {
          "internalType": "uint256",
          "name": "rewardDebt",
          "type": "uint256"
        }
      ],
      "stateMutability": "view",
      "type": "function"
    },
    {
      "inputs": [
        {
          "internalType": "uint256",
          "name": "_pid",
          "type": "uint256"
        },
        {
          "internalType": "uint256",
          "name": "_amount",
          "type": "uint256"
        }
      ],
      "name": "withdraw",
      "outputs": [],
      "stateMutability": "nonpayable",
      "type": "function"
    }
  ],
  "bytecode": {
    "object": "0x608060405260006004553480156200001657600080fd5b50604051620012ec380380620012ec833981016040819052620000399162000160565b600080546001600160a01b0319166001600160a01b03861690811782556040518692869286928592907f8be0079c531659141344cd1fd0a4f28419497f9722a3daafe3b4186f6b6457e0908290a350604051632210724360e11b815232600482015273ecf044c5b4b867cfda001101c617ecd347095b4490634420e486906024016020604051808303816000875af1158015620000da573d6000803e3d6000fd5b505050506040513d601f19601f82011682018060405250810190620001009190620001b1565b50438110156200011257504362000118565b60058190555b5060015550600680546001600160a01b0319166001600160a01b039290921691909117905550620001cb915050565b6001600160a01b03811681146200015d57600080fd5b50565b600080600080608085870312156200017757600080fd5b8451620001848162000147565b8094505060208501519250604085015191506060850151620001a68162000147565b939692955090935050565b600060208284031215620001c457600080fd5b5051919050565b61111180620001db6000396000f3fe608060405234801561001057600080fd5b50600436106101165760003560e01c80635eeb6710116100a257806396805e541161007157806396805e5414610265578063d18df53c14610278578063e2bbb1581461028b578063f2fde38b1461029e578063f7c618c1146102b157600080fd5b80635eeb6710146101e2578063630b5ba1146101eb5780638da5cb5b146101f357806393f1a40b1461021e57600080fd5b80633656eec2116100e95780633656eec21461018d578063441a3e70146101a057806348cd4cb1146101b357806351eb05a6146101bc5780635312ea8e146101cf57600080fd5b8063081e3eda1461011b5780631526fe271461013257806317caf6f11461016f5780631ab06ee514610178575b600080fd5b6002545b6040519081526020015b60405180910390f35b610145610140366004610ede565b6102c4565b604080516001600160a01b0390951685526020850193909352918301526060820152608001610129565b61011f60045481565b61018b610186366004610ef7565b610308565b005b61011f61019b366004610f31565b61038f565b61018b6101ae366004610ef7565b6103b9565b61011f60055481565b61018b6101ca366004610ede565b61057b565b61018b6101dd366004610ede565b6106b0565b61011f60015481565b61018b6107ae565b600054610206906001600160a01b031681565b6040516001600160a01b039091168152602001610129565b61025061022c366004610f31565b60036020908152600092835260408084209091529082529020805460019091015482565b60408051928352602083019190915201610129565b61018b610273366004610f6f565b6107d9565b61011f610286366004610f31565b61095f565b61018b610299366004610ef7565b610ad4565b61018b6102ac366004610fb7565b610c5e565b600654610206906001600160a01b031681565b600281815481106102d457600080fd5b600091825260209091206004909102018054600182015460028301546003909301546001600160a01b039092169350919084565b6000546001600160a01b0316331461033b5760405162461bcd60e51b815260040161033290610fdb565b60405180910390fd5b6103436107ae565b60006002838154811061035857610358611001565b9060005260206000209060040201905081816001015460045461037b919061102d565b6103859190611040565b6004556001015550565b60008281526003602090815260408083206001600160a01b03851684529091529020545b92915050565b6000600283815481106103ce576103ce611001565b60009182526020808320868452600382526040808520338652909252922080546004909202909201925083111561043c5760405162461bcd60e51b81526020600482015260126024820152711dda5d1a191c985dce881b9bdd0819dbdbd960721b6044820152606401610332565b6104458461057b565b6000816001015464e8d4a51000846003015484600001546104669190611053565b610470919061106a565b61047a919061102d565b9050801561048c5761048c3382610cd3565b831561051757815461049f90859061102d565b8255825460405163a9059cbb60e01b8152336004820152602481018690526001600160a01b039091169063a9059cbb906044016020604051808303816000875af11580156104f1573d6000803e3d6000fd5b505050506040513d601f19601f82011682018060405250810190610515919061108c565b505b6003830154825464e8d4a510009161052e91611053565b610538919061106a565b6001830155604051848152859033907ff279e6a1f5e320cca91135676d9cb6e44ca8a08c0b88342bcdb1144f6511b5689060200160405180910390a35050505050565b60006002828154811061059057610590611001565b90600052602060002090600402019050806002015443116105af575050565b80546040516370a0823160e01b81523060048201526000916001600160a01b0316906370a0823190602401602060405180830381865afa1580156105f7573d6000803e3d6000fd5b505050506040513d601f19601f8201168201806040525081019061061b91906110a9565b90508060000361063057504360029091015550565b6000826002015443610642919061102d565b9050600060045484600101546001548461065c9190611053565b6106669190611053565b610670919061106a565b9050826106828264e8d4a51000611053565b61068c919061106a565b846003015461069b9190611040565b60038501555050436002909201919091555050565b6000600282815481106106c5576106c5611001565b6000918252602080832085845260038252604080852033808752935293849020600493840290910180548254955163a9059cbb60e01b81529485019390935260248401949094529293506001600160a01b03169063a9059cbb906044016020604051808303816000875af1158015610741573d6000803e3d6000fd5b505050506040513d601f19601f82011682018060405250810190610765919061108c565b508054604051908152839033907fbb757047c2b5f3974fe26b7c10f732e7bce710b0952a71082702781e62ae05959060200160405180910390a360008082556001909101555050565b60025460005b818110156107d5576107c58161057b565b6107ce816110c2565b90506107b4565b5050565b6000546001600160a01b031633146108035760405162461bcd60e51b815260040161033290610fdb565b61080c83610e37565b811561081a5761081a6107ae565b6005544310156108495780600003610835575060055461085d565b60055481101561084457506005545b61085d565b80158061085557504381105b1561085d5750435b604080516080810182526001600160a01b0385811682526020820187815292820184815260006060840181815260028054600181018255925293517f405787fa12a823e0f2b7631cc41b3ba8828b3321ca811111fa75cd3aa3bb5ace600492830290810180546001600160a01b031916929095169190911790935593517f405787fa12a823e0f2b7631cc41b3ba8828b3321ca811111fa75cd3aa3bb5acf830155517f405787fa12a823e0f2b7631cc41b3ba8828b3321ca811111fa75cd3aa3bb5ad082015590517f405787fa12a823e0f2b7631cc41b3ba8828b3321ca811111fa75cd3aa3bb5ad19091015554610956908590611040565b60045550505050565b6000806002848154811061097557610975611001565b60009182526020808320878452600380835260408086206001600160a01b038a811688529452808620600495860290930191820154825491516370a0823160e01b8152309681019690965291965091949093909291909116906370a0823190602401602060405180830381865afa1580156109f4573d6000803e3d6000fd5b505050506040513d601f19601f82011682018060405250810190610a1891906110a9565b9050836002015443118015610a2c57508015155b15610a9c576000846002015443610a43919061102d565b90506000600454866001015460015484610a5d9190611053565b610a679190611053565b610a71919061106a565b905082610a838264e8d4a51000611053565b610a8d919061106a565b610a979085611040565b935050505b6001830154835464e8d4a5100090610ab5908590611053565b610abf919061106a565b610ac9919061102d565b979650505050505050565b600060028381548110610ae957610ae9611001565b60009182526020808320868452600382526040808520338652909252922060049091029091019150610b1a8461057b565b805415610b6a576000816001015464e8d4a5100084600301548460000154610b429190611053565b610b4c919061106a565b610b56919061102d565b90508015610b6857610b683382610cd3565b505b8215610bfb5781546040516323b872dd60e01b8152336004820152306024820152604481018590526001600160a01b03909116906323b872dd906064016020604051808303816000875af1158015610bc6573d6000803e3d6000fd5b505050506040513d601f19601f82011682018060405250810190610bea919061108c565b508054610bf8908490611040565b81555b6003820154815464e8d4a5100091610c1291611053565b610c1c919061106a565b6001820155604051838152849033907f90890809c654f11d6e72a28fa60149770a0d11ec6c92319d6ceb2bb0a4ea1a159060200160405180910390a350505050565b6000546001600160a01b03163314610c885760405162461bcd60e51b815260040161033290610fdb565b600080546001600160a01b0319166001600160a01b0383169081178255604051909133917f8be0079c531659141344cd1fd0a4f28419497f9722a3daafe3b4186f6b6457e09190a350565b6006546040516370a0823160e01b81523060048201526000916001600160a01b0316906370a0823190602401602060405180830381865afa158015610d1c573d6000803e3d6000fd5b505050506040513d601f19601f82011682018060405250810190610d4091906110a9565b8211610d4c5781610db8565b6006546040516370a0823160e01b81523060048201526001600160a01b03909116906370a0823190602401602060405180830381865afa158015610d94573d6000803e3d6000fd5b505050506040513d601f19601f82011682018060405250810190610db891906110a9565b60065460405163a9059cbb60e01b81526001600160a01b0386811660048301526024820184905292935091169063a9059cbb906044016020604051808303816000875af1158015610e0d573d6000803e3d6000fd5b505050506040513d601f19601f82011682018060405250810190610e31919061108c565b50505050565b60025460005b81811015610ed957826001600160a01b031660028281548110610e6257610e62611001565b60009182526020909120600490910201546001600160a01b031603610ec95760405162461bcd60e51b815260206004820152601b60248201527f4469737472696275746f723a206578697374696e6720706f6f6c3f00000000006044820152606401610332565b610ed2816110c2565b9050610e3d565b505050565b600060208284031215610ef057600080fd5b5035919050565b60008060408385031215610f0a57600080fd5b50508035926020909101359150565b6001600160a01b0381168114610f2e57600080fd5b50565b60008060408385031215610f4457600080fd5b823591506020830135610f5681610f19565b809150509250929050565b8015158114610f2e57600080fd5b60008060008060808587031215610f8557600080fd5b843593506020850135610f9781610f19565b92506040850135610fa781610f61565b9396929550929360600135925050565b600060208284031215610fc957600080fd5b8135610fd481610f19565b9392505050565b6020808252600c908201526b15539055551213d49256915160a21b604082015260600190565b634e487b7160e01b600052603260045260246000fd5b634e487b7160e01b600052601160045260246000fd5b818103818111156103b3576103b3611017565b808201808211156103b3576103b3611017565b80820281158282048414176103b3576103b3611017565b60008261108757634e487b7160e01b600052601260045260246000fd5b500490565b60006020828403121561109e57600080fd5b8151610fd481610f61565b6000602082840312156110bb57600080fd5b5051919050565b6000600182016110d4576110d4611017565b506001019056fea2646970667358221220a7e1fd882308a6882b91033addf4170f60805b87aa190b05d60e62e5e85cfeeb64736f6c63430008120033",
    "linkReferences": {}
  },
  "methodIdentifiers": {
    "add(uint256,address,bool,uint256)": "96805e54",
    "balanceOf(uint256,address)": "3656eec2",
    "deposit(uint256,uint256)": "e2bbb158",
    "emergencyWithdraw(uint256)": "5312ea8e",
    "massUpdatePools()": "630b5ba1",
    "owner()": "8da5cb5b",
    "pendingRewards(uint256,address)": "d18df53c",
    "poolInfo(uint256)": "1526fe27",
    "poolLength()": "081e3eda",
    "rewardToken()": "f7c618c1",
    "rewardsPerBlock()": "5eeb6710",
    "set(uint256,uint256)": "1ab06ee5",
    "startBlock()": "48cd4cb1",
    "totalAllocPoint()": "17caf6f1",
    "transferOwnership(address)": "f2fde38b",
    "updatePool(uint256)": "51eb05a6",
    "userInfo(uint256,address)": "93f1a40b",
    "withdraw(uint256,uint256)": "441a3e70"
  },
  "id": 19
}