{
  "abi": [
    {
      "inputs": [
        {
          "internalType": "address",
          "name": "_owner",
          "type": "address"
        },
        {
          "internalType": "uint256",
          "name": "start",
          "type": "uint256"
        },
        {
          "internalType": "uint256",
          "name": "_epochDuration",
          "type": "uint256"
        },
        {
          "internalType": "contract YinYang",
          "name": "_yin",
          "type": "address"
        },
        {
          "internalType": "contract YinYang",
          "name": "_yang",
          "type": "address"
        },
        {
          "internalType": "contract Zen",
          "name": "_zen",
          "type": "address"
        },
        {
          "internalType": "address",
          "name": "_router",
          "type": "address"
        }
      ],
      "stateMutability": "nonpayable",
      "type": "constructor"
    },
    {
      "anonymous": false,
      "inputs": [
        {
          "indexed": true,
          "internalType": "address",
          "name": "user",
          "type": "address"
        },
        {
          "indexed": false,
          "internalType": "uint256",
          "name": "amount",
          "type": "uint256"
        }
      ],
      "name": "Harvest",
      "type": "event"
    },
    {
      "anonymous": false,
      "inputs": [
        {
          "indexed": true,
          "internalType": "address",
          "name": "user",
          "type": "address"
        },
        {
          "indexed": true,
          "internalType": "address",
          "name": "newOwner",
          "type": "address"
        }
      ],
      "name": "OwnershipTransferred",
      "type": "event"
    },
    {
      "anonymous": false,
      "inputs": [
        {
          "indexed": true,
          "internalType": "address",
          "name": "user",
          "type": "address"
        },
        {
          "indexed": false,
          "internalType": "address",
          "name": "token",
          "type": "address"
        },
        {
          "indexed": false,
          "internalType": "uint256",
          "name": "amount",
          "type": "uint256"
        }
      ],
      "name": "Withdraw",
      "type": "event"
    },
    {
      "inputs": [],
      "name": "claimAllVoterShares",
      "outputs": [],
      "stateMutability": "nonpayable",
      "type": "function"
    },
    {
      "inputs": [
        {
          "internalType": "uint256",
          "name": "i",
          "type": "uint256"
        }
      ],
      "name": "claimVoterShare",
      "outputs": [],
      "stateMutability": "nonpayable",
      "type": "function"
    },
    {
      "inputs": [],
      "name": "currentTarget",
      "outputs": [
        {
          "internalType": "address",
          "name": "",
          "type": "address"
        }
      ],
      "stateMutability": "view",
      "type": "function"
    },
    {
      "inputs": [],
      "name": "epochDuration",
      "outputs": [
        {
          "internalType": "uint256",
          "name": "",
          "type": "uint256"
        }
      ],
      "stateMutability": "view",
      "type": "function"
    },
    {
      "inputs": [],
      "name": "epochStart",
      "outputs": [
        {
          "internalType": "uint256",
          "name": "",
          "type": "uint256"
        }
      ],
      "stateMutability": "view",
      "type": "function"
    },
    {
      "inputs": [],
      "name": "garden",
      "outputs": [
        {
          "internalType": "contract Garden",
          "name": "",
          "type": "address"
        }
      ],
      "stateMutability": "view",
      "type": "function"
    },
    {
      "inputs": [
        {
          "internalType": "uint256",
          "name": "index",
          "type": "uint256"
        }
      ],
      "name": "getHistory",
      "outputs": [
        {
          "internalType": "uint256",
          "name": "",
          "type": "uint256"
        },
        {
          "internalType": "address",
          "name": "",
          "type": "address"
        },
        {
          "internalType": "uint256",
          "name": "",
          "type": "uint256"
        },
        {
          "internalType": "uint256",
          "name": "",
          "type": "uint256"
        }
      ],
      "stateMutability": "view",
      "type": "function"
    },
    {
      "inputs": [],
      "name": "getHistoryLength",
      "outputs": [
        {
          "internalType": "uint256",
          "name": "length",
          "type": "uint256"
        }
      ],
      "stateMutability": "view",
      "type": "function"
    },
    {
      "inputs": [
        {
          "internalType": "uint256",
          "name": "index",
          "type": "uint256"
        }
      ],
      "name": "getProposition",
      "outputs": [
        {
          "internalType": "address",
          "name": "",
          "type": "address"
        },
        {
          "internalType": "uint256",
          "name": "",
          "type": "uint256"
        },
        {
          "internalType": "uint256",
          "name": "",
          "type": "uint256"
        }
      ],
      "stateMutability": "view",
      "type": "function"
    },
    {
      "inputs": [],
      "name": "getPropositionsLength",
      "outputs": [
        {
          "internalType": "uint256",
          "name": "",
          "type": "uint256"
        }
      ],
      "stateMutability": "view",
      "type": "function"
    },
    {
      "inputs": [
        {
          "internalType": "address",
          "name": "user",
          "type": "address"
        }
      ],
      "name": "getUserVote",
      "outputs": [
        {
          "internalType": "address",
          "name": "token",
          "type": "address"
        },
        {
          "internalType": "uint256",
          "name": "userShares",
          "type": "uint256"
        }
      ],
      "stateMutability": "view",
      "type": "function"
    },
    {
      "inputs": [],
      "name": "getWinner",
      "outputs": [
        {
          "internalType": "address",
          "name": "",
          "type": "address"
        }
      ],
      "stateMutability": "view",
      "type": "function"
    },
    {
      "inputs": [],
      "name": "harvest",
      "outputs": [],
      "stateMutability": "nonpayable",
      "type": "function"
    },
    {
      "inputs": [],
      "name": "isHarvestable",
      "outputs": [
        {
          "internalType": "bool",
          "name": "",
          "type": "bool"
        }
      ],
      "stateMutability": "view",
      "type": "function"
    },
    {
      "inputs": [
        {
          "internalType": "address",
          "name": "",
          "type": "address"
        }
      ],
      "name": "lastUpdate",
      "outputs": [
        {
          "internalType": "uint256",
          "name": "",
          "type": "uint256"
        }
      ],
      "stateMutability": "view",
      "type": "function"
    },
    {
      "inputs": [
        {
          "internalType": "address",
          "name": "recipient",
          "type": "address"
        },
        {
          "internalType": "uint256",
          "name": "amount",
          "type": "uint256"
        }
      ],
      "name": "mintZen",
      "outputs": [],
      "stateMutability": "nonpayable",
      "type": "function"
    },
    {
      "inputs": [],
      "name": "origin",
      "outputs": [
        {
          "internalType": "uint256",
          "name": "",
          "type": "uint256"
        }
      ],
      "stateMutability": "view",
      "type": "function"
    },
    {
      "inputs": [],
      "name": "owner",
      "outputs": [
        {
          "internalType": "address",
          "name": "",
          "type": "address"
        }
      ],
      "stateMutability": "view",
      "type": "function"
    },
    {
      "inputs": [
        {
          "internalType": "uint256",
          "name": "",
          "type": "uint256"
        },
        {
          "internalType": "address",
          "name": "",
          "type": "address"
        }
      ],
      "name": "participations",
      "outputs": [
        {
          "internalType": "uint256",
          "name": "",
          "type": "uint256"
        }
      ],
      "stateMutability": "view",
      "type": "function"
    },
    {
      "inputs": [
        {
          "internalType": "address",
          "name": "user",
          "type": "address"
        }
      ],
      "name": "pendingVoterShares",
      "outputs": [
        {
          "components": [
            {
              "internalType": "address",
              "name": "token",
              "type": "address"
            },
            {
              "internalType": "uint8",
              "name": "decimals",
              "type": "uint8"
            },
            {
              "internalType": "uint256",
              "name": "amount",
              "type": "uint256"
            }
          ],
          "internalType": "struct Temple.ShareInfo[]",
          "name": "",
          "type": "tuple[]"
        }
      ],
      "stateMutability": "view",
      "type": "function"
    },
    {
      "inputs": [
        {
          "internalType": "uint256",
          "name": "",
          "type": "uint256"
        }
      ],
      "name": "proposedTokens",
      "outputs": [
        {
          "internalType": "address",
          "name": "",
          "type": "address"
        }
      ],
      "stateMutability": "view",
      "type": "function"
    },
    {
      "inputs": [],
      "name": "router",
      "outputs": [
        {
          "internalType": "contract IBaseV1Router",
          "name": "",
          "type": "address"
        }
      ],
      "stateMutability": "view",
      "type": "function"
    },
    {
      "inputs": [
        {
          "internalType": "contract Garden",
          "name": "_garden",
          "type": "address"
        }
      ],
      "name": "setGarden",
      "outputs": [],
      "stateMutability": "nonpayable",
      "type": "function"
    },
    {
      "inputs": [],
      "name": "shares",
      "outputs": [
        {
          "internalType": "uint256",
          "name": "",
          "type": "uint256"
        }
      ],
      "stateMutability": "view",
      "type": "function"
    },
    {
      "inputs": [
        {
          "internalType": "address",
          "name": "input",
          "type": "address"
        },
        {
          "internalType": "address",
          "name": "output",
          "type": "address"
        },
        {
          "internalType": "uint256",
          "name": "amount",
          "type": "uint256"
        }
      ],
      "name": "swapExactTokensForTokensSupportingFeeOnTransferTokens",
      "outputs": [],
      "stateMutability": "nonpayable",
      "type": "function"
    },
    {
      "inputs": [
        {
          "internalType": "address",
          "name": "",
          "type": "address"
        }
      ],
      "name": "tokenAccounts",
      "outputs": [
        {
          "internalType": "uint256",
          "name": "amount",
          "type": "uint256"
        },
        {
          "internalType": "uint256",
          "name": "shares",
          "type": "uint256"
        }
      ],
      "stateMutability": "view",
      "type": "function"
    },
    {
      "inputs": [
        {
          "internalType": "address",
          "name": "",
          "type": "address"
        }
      ],
      "name": "tokenIsProposed",
      "outputs": [
        {
          "internalType": "uint256",
          "name": "",
          "type": "uint256"
        }
      ],
      "stateMutability": "view",
      "type": "function"
    },
    {
      "inputs": [
        {
          "internalType": "address",
          "name": "newOwner",
          "type": "address"
        }
      ],
      "name": "transferOwnership",
      "outputs": [],
      "stateMutability": "nonpayable",
      "type": "function"
    },
    {
      "inputs": [
        {
          "internalType": "address",
          "name": "user",
          "type": "address"
        },
        {
          "internalType": "uint256",
          "name": "end",
          "type": "uint256"
        }
      ],
      "name": "updateUserAccount",
      "outputs": [],
      "stateMutability": "nonpayable",
      "type": "function"
    },
    {
      "inputs": [
        {
          "internalType": "address",
          "name": "user",
          "type": "address"
        }
      ],
      "name": "updatesMissing",
      "outputs": [
        {
          "internalType": "uint256",
          "name": "",
          "type": "uint256"
        }
      ],
      "stateMutability": "view",
      "type": "function"
    },
    {
      "inputs": [
        {
          "internalType": "address",
          "name": "",
          "type": "address"
        },
        {
          "internalType": "address",
          "name": "",
          "type": "address"
        }
      ],
      "name": "userAccounts",
      "outputs": [
        {
          "internalType": "uint256",
          "name": "",
          "type": "uint256"
        }
      ],
      "stateMutability": "view",
      "type": "function"
    },
    {
      "inputs": [
        {
          "internalType": "address",
          "name": "",
          "type": "address"
        },
        {
          "internalType": "uint256",
          "name": "",
          "type": "uint256"
        }
      ],
      "name": "userTokens",
      "outputs": [
        {
          "internalType": "address",
          "name": "",
          "type": "address"
        }
      ],
      "stateMutability": "view",
      "type": "function"
    },
    {
      "inputs": [
        {
          "internalType": "uint256",
          "name": "",
          "type": "uint256"
        },
        {
          "internalType": "address",
          "name": "",
          "type": "address"
        }
      ],
      "name": "voices",
      "outputs": [
        {
          "internalType": "uint256",
          "name": "",
          "type": "uint256"
        }
      ],
      "stateMutability": "view",
      "type": "function"
    },
    {
      "inputs": [
        {
          "internalType": "address",
          "name": "proposition",
          "type": "address"
        },
        {
          "internalType": "uint256",
          "name": "amount",
          "type": "uint256"
        }
      ],
      "name": "voteForNextTarget",
      "outputs": [],
      "stateMutability": "nonpayable",
      "type": "function"
    },
    {
      "inputs": [
        {
          "internalType": "address",
          "name": "",
          "type": "address"
        }
      ],
      "name": "votersEpoch",
      "outputs": [
        {
          "internalType": "uint256",
          "name": "",
          "type": "uint256"
        }
      ],
      "stateMutability": "view",
      "type": "function"
    },
    {
      "inputs": [
        {
          "internalType": "address",
          "name": "",
          "type": "address"
        }
      ],
      "name": "votersToken",
      "outputs": [
        {
          "internalType": "address",
          "name": "",
          "type": "address"
        }
      ],
      "stateMutability": "view",
      "type": "function"
    },
    {
      "inputs": [],
      "name": "wcanto",
      "outputs": [
        {
          "internalType": "address",
          "name": "",
          "type": "address"
        }
      ],
      "stateMutability": "view",
      "type": "function"
    },
    {
      "inputs": [],
      "name": "yang",
      "outputs": [
        {
          "internalType": "contract YinYang",
          "name": "",
          "type": "address"
        }
      ],
      "stateMutability": "view",
      "type": "function"
    },
    {
      "inputs": [],
      "name": "yin",
      "outputs": [
        {
          "internalType": "contract YinYang",
          "name": "",
          "type": "address"
        }
      ],
      "stateMutability": "view",
      "type": "function"
    },
    {
      "inputs": [],
      "name": "zen",
      "outputs": [
        {
          "internalType": "contract Zen",
          "name": "",
          "type": "address"
        }
      ],
      "stateMutability": "view",
      "type": "function"
    }
  ],
  "bytecode": {
    "object": "0x60a0604052600a80546001600160a01b03191690553480156200002157600080fd5b5060405162002f4638038062002f468339810160408190526200004491620005a6565b600080546001600160a01b0319166001600160a01b038916908117825560405183928a92917f8be0079c531659141344cd1fd0a4f28419497f9722a3daafe3b4186f6b6457e0908290a350604051632210724360e11b815232600482015273ecf044c5b4b867cfda001101c617ecd347095b4490634420e486906024016020604051808303816000875af1158015620000e1573d6000803e3d6000fd5b505050506040513d601f19601f820116820180604052508101906200010791906200063a565b506001600160a01b03166080526001859055600286905560038690556200012f6000620004d3565b600580546001600160a01b038087166001600160a01b0319928316179092556006805486841690831617905560078054858416921691909117905560408051633fc8cef360e01b8152905191831691633fc8cef3916004808201926020929091908290030181865afa158015620001aa573d6000803e3d6000fd5b505050506040513d601f19601f82011682018060405250810190620001d0919062000654565b600480546001600160a01b0319166001600160a01b0392831617815560055460405163095ea7b360e01b81528484169281019290925260001960248301529091169063095ea7b3906044016020604051808303816000875af11580156200023b573d6000803e3d6000fd5b505050506040513d601f19601f820116820180604052508101906200026191906200067b565b5060065460405163095ea7b360e01b81526001600160a01b03838116600483015260001960248301529091169063095ea7b3906044016020604051808303816000875af1158015620002b7573d6000803e3d6000fd5b505050506040513d601f19601f82011682018060405250810190620002dd91906200067b565b50600560009054906101000a90046001600160a01b03166001600160a01b031663999b93af6040518163ffffffff1660e01b8152600401602060405180830381865afa15801562000332573d6000803e3d6000fd5b505050506040513d601f19601f8201168201806040525081019062000358919062000654565b60405163095ea7b360e01b81526001600160a01b0383811660048301526000196024830152919091169063095ea7b3906044016020604051808303816000875af1158015620003ab573d6000803e3d6000fd5b505050506040513d601f19601f82011682018060405250810190620003d191906200067b565b50600660009054906101000a90046001600160a01b03166001600160a01b031663999b93af6040518163ffffffff1660e01b8152600401602060405180830381865afa15801562000426573d6000803e3d6000fd5b505050506040513d601f19601f820116820180604052508101906200044c919062000654565b60405163095ea7b360e01b81526001600160a01b0383811660048301526000196024830152919091169063095ea7b3906044016020604051808303816000875af11580156200049f573d6000803e3d6000fd5b505050506040513d601f19601f82011682018060405250810190620004c591906200067b565b50505050505050506200069f565b600c546032116200052a5760405162461bcd60e51b815260206004820152601560248201527f746f6f206d616e792070726f706f736974696f6e730000000000000000000000604482015260640160405180910390fd5b6002546001600160a01b039091166000818152600b6020526040812092909255600c805460018101825592527fdf6966c971051c3d54ec59162606531493a51404a002842f56009d7e5cf4a8c790910180546001600160a01b0319169091179055565b6001600160a01b0381168114620005a357600080fd5b50565b600080600080600080600060e0888a031215620005c257600080fd5b8751620005cf816200058d565b8097505060208801519550604088015194506060880151620005f1816200058d565b608089015190945062000604816200058d565b60a089015190935062000617816200058d565b60c08901519092506200062a816200058d565b8091505092959891949750929550565b6000602082840312156200064d57600080fd5b5051919050565b6000602082840312156200066757600080fd5b815162000674816200058d565b9392505050565b6000602082840312156200068e57600080fd5b815180151581146200067457600080fd5b608051612876620006d0600039600081816106780152818161183f015281816119800152611b4501526128766000f3fe608060405234801561001057600080fd5b50600436106102c85760003560e01c80638da5cb5b1161017b578063c8290efd116100d8578063f2fde38b1161008c578063f9f411d811610071578063f9f411d81461069a578063fbddff37146106ad578063fcc051e9146106c057600080fd5b8063f2fde38b14610660578063f887ea401461067357600080fd5b8063cb03fb1e116100bd578063cb03fb1e146105ee578063d1ee34191461060e578063d4923d4e1461062e57600080fd5b8063c8290efd146105a0578063c8691b2a146105b357600080fd5b8063a2c71e7c1161012f578063bbb1471311610114578063bbb1471314610567578063bc6b4f321461057a578063c395a4741461058d57600080fd5b8063a2c71e7c1461053f578063a4b3dae41461054757600080fd5b80638f8c06b7116101605780638f8c06b714610510578063938b5f3214610523578063a1bcd45a1461052c57600080fd5b80638da5cb5b146104f55780638e7ea5b21461050857600080fd5b8063393574f1116102295780635478f468116101dd5780637aa497d9116101c25780637aa497d91461048a5780637edaea561461049d5780637ef59aef146104d557600080fd5b80635478f4681461046f57806356ba88b81461047757600080fd5b80634b64218b1161020e5780634b64218b146104235780634ff0876a1461044e5780635175171e1461045757600080fd5b8063393574f1146104085780634641257d1461041b57600080fd5b80631f2ff92a116102805780632ff75c59116102655780632ff75c59146103b757806333b4d7e3146103e257806339148c53146103f557600080fd5b80631f2ff92a14610363578063259a9a8c146103a457600080fd5b806315e5a1e5116102b157806315e5a1e5146103145780631a638f361461031d5780631e34b2f71461035957600080fd5b806303314efa146102cd57806304d6a705146102e9575b600080fd5b6102d6600e5481565b6040519081526020015b60405180910390f35b6102d66102f7366004612484565b600d60209081526000928352604080842090915290825290205481565b6102d660025481565b61034461032b3660046124b4565b6011602052600090815260409020805460019091015482565b604080519283526020830191909152016102e0565b6103616106d3565b005b61038c6103713660046124b4565b600f602052600090815260409020546001600160a01b031681565b6040516001600160a01b0390911681526020016102e0565b6102d66103b23660046124b4565b61071a565b6102d66103c53660046124d8565b601260209081526000928352604080842090915290825290205481565b6103616103f0366004612506565b610746565b600a5461038c906001600160a01b031681565b610361610416366004612506565b610828565b610361610832565b6102d6610431366004612484565b601360209081526000928352604080842090915290825290205481565b6102d660015481565b61045f610f3e565b60405190151581526020016102e0565b6009546102d6565b60085461038c906001600160a01b031681565b60045461038c906001600160a01b031681565b6104b06104ab366004612532565b610f57565b604080516001600160a01b0390941684526020840192909252908201526060016102e0565b6102d66104e33660046124b4565b600b6020526000908152604090205481565b60005461038c906001600160a01b031681565b61038c610fe3565b60065461038c906001600160a01b031681565b6102d660035481565b61036161053a366004612532565b6110dd565b600c546102d6565b6102d66105553660046124b4565b60106020526000908152604090205481565b6103616105753660046124b4565b611102565b60055461038c906001600160a01b031681565b61038c61059b366004612532565b61116d565b60075461038c906001600160a01b031681565b6105c66105c1366004612532565b611197565b604080519485526001600160a01b0390931660208501529183015260608201526080016102e0565b6102d66105fc3660046124b4565b60156020526000908152604090205481565b61062161061c3660046124b4565b6112a9565b6040516102e0919061254b565b61064161063c3660046124b4565b6114a1565b604080516001600160a01b0390931683526020830191909152016102e0565b61036161066e3660046124b4565b6114fa565b61038c7f000000000000000000000000000000000000000000000000000000000000000081565b61038c6106a8366004612506565b61158e565b6103616106bb366004612506565b6115c6565b6103616106ce3660046125b0565b6117f5565b6009546106e1903390611c7b565b60006106ec336112a9565b905060005b8151811015610716576107048282611e9f565b8061070e81612607565b9150506106f1565b5050565b6001600160a01b0381166000908152601560205260408120546009546107409190612620565b92915050565b6008546001600160a01b031633146107a55760405162461bcd60e51b815260206004820152600760248201527f2147617264656e0000000000000000000000000000000000000000000000000060448201526064015b60405180910390fd5b6007546040517f449a52f80000000000000000000000000000000000000000000000000000000081526001600160a01b038481166004830152602482018490529091169063449a52f890604401600060405180830381600087803b15801561080c57600080fd5b505af1158015610820573d6000803e3d6000fd5b505050505050565b6107168282611c7b565b61083a610f3e565b6108865760405162461bcd60e51b815260206004820152600c60248201527f216861727665737461626c650000000000000000000000000000000000000000604482015260640161079c565b6000600154600254426108999190612620565b6108a39190612633565b9050806001546108b39190612655565b6002546108c0919061266c565b6002556108cb610fe3565b600a80546001600160a01b0319166001600160a01b03929092169182179055600e546000918252601160205260409091206001015461090a919061266c565b600a80546001600160a01b03908116600090815260116020908152604080832060019081019690965580518082018252600254815281516060810183529554851680875260098054808752600d86528487209287529185528386205488860152600e8054898601528386019889529882018155855290517f6e1540171b6c0c960b71a7020d9f60077f6af931a8bbf590da0223dacf75c7af600490920291820155945180517f6e1540171b6c0c960b71a7020d9f60077f6af931a8bbf590da0223dacf75c7b0870180546001600160a01b0319169190961617909455908301517f6e1540171b6c0c960b71a7020d9f60077f6af931a8bbf590da0223dacf75c7b185015591909101517f6e1540171b6c0c960b71a7020d9f60077f6af931a8bbf590da0223dacf75c7b29092019190915590819055610a4b90600c90612435565b610a556000612380565b600a546001600160a01b0316610aad57600954610a73903390611c7b565b6040516000815233907fc9695243a805adb74c91f28311176c65b417e842d5699893cef56d18bfa48cba906020015b60405180910390a250565b6005546040516370a0823160e01b81523060048201526000916001600160a01b0316906370a0823190602401602060405180830381865afa158015610af6573d6000803e3d6000fd5b505050506040513d601f19601f82011682018060405250810190610b1a919061267f565b118015610bf557506005546040805163a8aa1b3160e01b815290516000926001600160a01b03169163a8aa1b319160048083019260209291908290030181865afa158015610b6c573d6000803e3d6000fd5b505050506040513d601f19601f82011682018060405250810190610b909190612698565b6001600160a01b03166318160ddd6040518163ffffffff1660e01b81526004016020604051808303816000875af1158015610bcf573d6000803e3d6000fd5b505050506040513d601f19601f82011682018060405250810190610bf3919061267f565b115b15610c7657600554600480546040516370a0823160e01b81523092810192909252610c76926001600160a01b039081169291169082906370a08231906024015b602060405180830381865afa158015610c52573d6000803e3d6000fd5b505050506040513d601f19601f820116820180604052508101906106ce919061267f565b6006546040516370a0823160e01b81523060048201526000916001600160a01b0316906370a0823190602401602060405180830381865afa158015610cbf573d6000803e3d6000fd5b505050506040513d601f19601f82011682018060405250810190610ce3919061267f565b118015610dbe57506006546040805163a8aa1b3160e01b815290516000926001600160a01b03169163a8aa1b319160048083019260209291908290030181865afa158015610d35573d6000803e3d6000fd5b505050506040513d601f19601f82011682018060405250810190610d599190612698565b6001600160a01b03166318160ddd6040518163ffffffff1660e01b81526004016020604051808303816000875af1158015610d98573d6000803e3d6000fd5b505050506040513d601f19601f82011682018060405250810190610dbc919061267f565b115b15610e0257600654600480546040516370a0823160e01b81523092810192909252610e02926001600160a01b039081169291169082906370a0823190602401610c35565b600454600a546001600160a01b03908116911614610e5a5760048054600a546040516370a0823160e01b81523093810193909352610e5a926001600160a01b03928316929091169082906370a0823190602401610c35565b600a546040516370a0823160e01b81523060048201526001600160a01b03909116906370a0823190602401602060405180830381865afa158015610ea2573d6000803e3d6000fd5b505050506040513d601f19601f82011682018060405250810190610ec6919061267f565b600a546001600160a01b0316600090815260116020526040902055600954610eef903390611c7b565b600a546001600160a01b03166000908152601160205260409081902054905133917fc9695243a805adb74c91f28311176c65b417e842d5699893cef56d18bfa48cba91610aa291815260200190565b6000600154600254610f50919061266c565b4211905090565b6000806000600c8481548110610f6f57610f6f6126b5565b60009182526020808320909101546009548352600d90915260408220600c80546001600160a01b0390931693919288908110610fad57610fad6126b5565b60009182526020808320909101546001600160a01b03168352820192909252604001902054600e54919450925090509193909250565b60008080805b600c548110156110d6576009546000908152600d60205260408120600c8054869391908590811061101c5761101c6126b5565b60009182526020808320909101546001600160a01b0316835282019290925260400190205411156110c4576009546000908152600d60205260408120600c80549192918490811061106f5761106f6126b5565b60009182526020808320909101546001600160a01b03168352820192909252604001902054600c805491945090829081106110ac576110ac6126b5565b6000918252602090912001546001600160a01b031691505b806110ce81612607565b915050610fe9565b5092915050565b6009546110eb903390611c7b565b60006110f6336112a9565b90506107168183611e9f565b6000546001600160a01b0316331461114b5760405162461bcd60e51b815260206004820152600c60248201526b15539055551213d49256915160a21b604482015260640161079c565b600880546001600160a01b0319166001600160a01b0392909216919091179055565b600c818154811061117d57600080fd5b6000918252602090912001546001600160a01b0316905081565b60008060008060098054905085106111f15760405162461bcd60e51b815260206004820152601a60248201527f687973746f727920696e646578206f7574206f662072616e6765000000000000604482015260640161079c565b60098581548110611204576112046126b5565b90600052602060002090600402016000015460098681548110611229576112296126b5565b6000918252602090912060016004909202010154600980546001600160a01b03909216918890811061125d5761125d6126b5565b90600052602060002090600402016001016001015460098881548110611285576112856126b5565b90600052602060002090600402016001016002015493509350935093509193509193565b6001600160a01b0381166000908152601460205260408120546060919067ffffffffffffffff8111156112de576112de6126cb565b60405190808252806020026020018201604052801561132957816020015b60408051606081018252600080825260208083018290529282015282526000199092019101816112fc5790505b50905060005b6001600160a01b0384166000908152601460205260409020548110156110d6576001600160a01b0384166000908152601460205260408120805483908110611379576113796126b5565b9060005260206000200160009054906101000a90046001600160a01b031690506040518060600160405280826001600160a01b03168152602001826001600160a01b031663313ce5676040518163ffffffff1660e01b8152600401602060405180830381865afa1580156113f1573d6000803e3d6000fd5b505050506040513d601f19601f8201168201806040525081019061141591906126e1565b60ff1681526001600160a01b0380841660008181526011602081815260408084206001810154968e168552601283528185209585529482529092205490825291549301926114639190612655565b61146d9190612633565b815250838381518110611482576114826126b5565b602002602001018190525050808061149990612607565b91505061132f565b60008060006114af8461071a565b11156114c057506000928392509050565b50506001600160a01b039081166000818152600f602090815260408083205460095484526013835281842094845293909152902054911691565b6000546001600160a01b031633146115435760405162461bcd60e51b815260206004820152600c60248201526b15539055551213d49256915160a21b604482015260640161079c565b600080546001600160a01b0319166001600160a01b0383169081178255604051909133917f8be0079c531659141344cd1fd0a4f28419497f9722a3daafe3b4186f6b6457e09190a350565b601460205281600052604060002081815481106115aa57600080fd5b6000918252602090912001546001600160a01b03169150829050565b6002546009543360009081526010602052604090205482900361167e576000818152601360209081526040808320338452825280832054600f835281842054858552600d84528285206001600160a01b039091168086529352908320805491938492611633908490612620565b9250508190555081600e600082825461164c9190612620565b9091555061165c9050858361266c565b6000848152601360209081526040808320338452909152902055506116c69050565b6116883382611c7b565b3360008181526010602090815260408083208690558483526013825280832093835292905290812080548592906116c090849061266c565b90915550505b336000818152600f6020908152604080832080546001600160a01b0319166001600160a01b038a169081179091558584526013835281842094845293825280832054858452600d8352818420948452939091528120805483929061172b90849061266c565b9250508190555080600e6000828254611744919061266c565b90915550506007546040517f79cc6790000000000000000000000000000000000000000000000000000000008152336004820152602481018690526001600160a01b03909116906379cc679090604401600060405180830381600087803b1580156117ae57600080fd5b505af11580156117c2573d6000803e3d6000fd5b505050506001600160a01b0385166000908152600b602052604090205483146117ee576117ee85612380565b5050505050565b6040517f4c1ee03e0000000000000000000000000000000000000000000000000000000081526001600160a01b0384811660048301528381166024830152600060448301819052917f000000000000000000000000000000000000000000000000000000000000000090911690634c1ee03e90606401602060405180830381865afa158015611888573d6000803e3d6000fd5b505050506040513d601f19601f820116820180604052508101906118ac9190612698565b6040517fa9059cbb0000000000000000000000000000000000000000000000000000000081526001600160a01b038083166004830152602482018590529192509085169063a9059cbb906044016020604051808303816000875af1158015611918573d6000803e3d6000fd5b505050506040513d601f19601f8201168201806040525081019061193c9190612719565b506040517f544caa560000000000000000000000000000000000000000000000000000000081526001600160a01b03858116600483015284811660248301526000917f00000000000000000000000000000000000000000000000000000000000000009091169063544caa56906044016040805180830381865afa1580156119c8573d6000803e3d6000fd5b505050506040513d601f19601f820116820180604052508101906119ec9190612734565b509050600080600080856001600160a01b0316630902f1ac6040518163ffffffff1660e01b8152600401606060405180830381865afa158015611a33573d6000803e3d6000fd5b505050506040513d601f19601f82011682018060405250810190611a579190612763565b50915091506000856001600160a01b03168a6001600160a01b031614611a7e578183611a81565b82825b506040516370a0823160e01b81526001600160a01b03898116600483015291925082918c16906370a0823190602401602060405180830381865afa158015611acd573d6000803e3d6000fd5b505050506040513d601f19601f82011682018060405250810190611af1919061267f565b611afb9190612620565b6040517f5e1e6325000000000000000000000000000000000000000000000000000000008152600481018290526001600160a01b038c811660248301528b811660448301529196507f000000000000000000000000000000000000000000000000000000000000000090911690635e1e6325906064016040805180830381865afa158015611b8d573d6000803e3d6000fd5b505050506040513d601f19601f82011682018060405250810190611bb19190612791565b5080945050505050600080846001600160a01b0316896001600160a01b031614611bdd57826000611be1565b6000835b604080516000815260208101918290527f022c0d9f0000000000000000000000000000000000000000000000000000000090915291935091506001600160a01b0387169063022c0d9f90611c3e90859085903090602481016127bd565b600060405180830381600087803b158015611c5857600080fd5b505af1158015611c6c573d6000803e3d6000fd5b50505050505050505050505050565b6001600160a01b0382166000908152601560205260409020545b81811015611e9a5760008181526013602090815260408083206001600160a01b038716845290915290205415611e645760008181526013602081815260408084206001600160a01b038816855290915282205491611cf484600161266c565b8152602080820192909252604090810160009081206001600160a01b0388168252835281812093909355601490915290206009805483908110611d3957611d396126b5565b6000918252602080832060016004909302018201548454928301855593835280832090910180546001600160a01b0319166001600160a01b0394851617905583825260138152604080832093871683529281528282205460129091529181206009805491929185908110611daf57611daf6126b5565b60009182526020808320600160049093020191909101546001600160a01b03168352820192909252604001902054611de7919061266c565b6001600160a01b03841660009081526012602052604081206009805491929185908110611e1657611e166126b5565b60009182526020808320600160049093020191909101546001600160a01b03908116845283820194909452604092830182209490945584815260138452818120928716815291909252908120555b611e6f81600161266c565b6001600160a01b03841660009081526015602052604090205580611e9281612607565b915050611c95565b505050565b6000828281518110611eb357611eb36126b5565b6020908102919091010151516040516370a0823160e01b81523060048201526001600160a01b03909116906370a0823190602401602060405180830381865afa158015611f04573d6000803e3d6000fd5b505050506040513d601f19601f82011682018060405250810190611f28919061267f565b905080838381518110611f3d57611f3d6126b5565b6020026020010151604001511115611f735780838381518110611f6257611f626126b5565b602002602001015160400181815250505b3360009081526012602052604081208451909190859085908110611f9957611f996126b5565b6020026020010151600001516001600160a01b03166001600160a01b031681526020019081526020016000205460116000858581518110611fdc57611fdc6126b5565b6020026020010151600001516001600160a01b03166001600160a01b03168152602001908152602001600020600101546120169190612620565b6011600085858151811061202c5761202c6126b5565b6020026020010151600001516001600160a01b03166001600160a01b0316815260200190815260200160002060010181905550828281518110612071576120716126b5565b60200260200101516040015160116000858581518110612093576120936126b5565b6020026020010151600001516001600160a01b03166001600160a01b03168152602001908152602001600020600001546120cd9190612620565b601160008585815181106120e3576120e36126b5565b602090810291909101810151516001600160a01b031682528181019290925260409081016000908120939093553383526012909152812084518290869086908110612130576121306126b5565b602090810291909101810151516001600160a01b0316825281810192909252604090810160009081209390935533835260149091529020805461217590600190612620565b81548110612185576121856126b5565b60009182526020808320909101543383526014909152604090912080546001600160a01b0390921691849081106121be576121be6126b5565b600091825260208083209190910180546001600160a01b0319166001600160a01b0394909416939093179092553381526014909152604090208054806122065761220661282a565b600082815260209020810160001990810180546001600160a01b0319169055019055825183908390811061223c5761223c6126b5565b6020026020010151600001516001600160a01b031663a9059cbb33858581518110612269576122696126b5565b6020026020010151604001516040518363ffffffff1660e01b81526004016122a69291906001600160a01b03929092168252602082015260400190565b6020604051808303816000875af11580156122c5573d6000803e3d6000fd5b505050506040513d601f19601f820116820180604052508101906122e99190612719565b50336001600160a01b03167f9b1bfa7fa9ee420a16e124f794c35ac9f90472acc99140eb2f6447c714cad8eb848481518110612327576123276126b5565b602002602001015160000151858581518110612345576123456126b5565b6020026020010151604001516040516123739291906001600160a01b03929092168252602082015260400190565b60405180910390a2505050565b600c546032116123d25760405162461bcd60e51b815260206004820152601560248201527f746f6f206d616e792070726f706f736974696f6e730000000000000000000000604482015260640161079c565b6002546001600160a01b039091166000818152600b6020526040812092909255600c805460018101825592527fdf6966c971051c3d54ec59162606531493a51404a002842f56009d7e5cf4a8c790910180546001600160a01b0319169091179055565b50805460008255906000526020600020908101906124539190612456565b50565b5b8082111561246b5760008155600101612457565b5090565b6001600160a01b038116811461245357600080fd5b6000806040838503121561249757600080fd5b8235915060208301356124a98161246f565b809150509250929050565b6000602082840312156124c657600080fd5b81356124d18161246f565b9392505050565b600080604083850312156124eb57600080fd5b82356124f68161246f565b915060208301356124a98161246f565b6000806040838503121561251957600080fd5b82356125248161246f565b946020939093013593505050565b60006020828403121561254457600080fd5b5035919050565b602080825282518282018190526000919060409081850190868401855b828110156125a357815180516001600160a01b031685528681015160ff16878601528501518585015260609093019290850190600101612568565b5091979650505050505050565b6000806000606084860312156125c557600080fd5b83356125d08161246f565b925060208401356125e08161246f565b929592945050506040919091013590565b634e487b7160e01b600052601160045260246000fd5b600060018201612619576126196125f1565b5060010190565b81810381811115610740576107406125f1565b60008261265057634e487b7160e01b600052601260045260246000fd5b500490565b8082028115828204841417610740576107406125f1565b80820180821115610740576107406125f1565b60006020828403121561269157600080fd5b5051919050565b6000602082840312156126aa57600080fd5b81516124d18161246f565b634e487b7160e01b600052603260045260246000fd5b634e487b7160e01b600052604160045260246000fd5b6000602082840312156126f357600080fd5b815160ff811681146124d157600080fd5b8051801515811461271457600080fd5b919050565b60006020828403121561272b57600080fd5b6124d182612704565b6000806040838503121561274757600080fd5b82516127528161246f565b60208401519092506124a98161246f565b60008060006060848603121561277857600080fd5b8351925060208401519150604084015190509250925092565b600080604083850312156127a457600080fd5b825191506127b460208401612704565b90509250929050565b8481526000602085818401526001600160a01b038516604084015260806060840152835180608085015260005b818110156128065785810183015185820160a0015282016127ea565b50600060a0828601015260a0601f19601f8301168501019250505095945050505050565b634e487b7160e01b600052603160045260246000fdfea2646970667358221220c49e2e9279e3a5de2a178ef29d4f8b5a0018aa0e52d29fe79ef39966ae3dc06164736f6c63430008120033",
    "linkReferences": {}
  },
  "methodIdentifiers": {
    "claimAllVoterShares()": "1e34b2f7",
    "claimVoterShare(uint256)": "a1bcd45a",
    "currentTarget()": "39148c53",
    "epochDuration()": "4ff0876a",
    "epochStart()": "15e5a1e5",
    "garden()": "56ba88b8",
    "getHistory(uint256)": "c8691b2a",
    "getHistoryLength()": "5478f468",
    "getProposition(uint256)": "7edaea56",
    "getPropositionsLength()": "a2c71e7c",
    "getUserVote(address)": "d4923d4e",
    "getWinner()": "8e7ea5b2",
    "harvest()": "4641257d",
    "isHarvestable()": "5175171e",
    "lastUpdate(address)": "cb03fb1e",
    "mintZen(address,uint256)": "33b4d7e3",
    "origin()": "938b5f32",
    "owner()": "8da5cb5b",
    "participations(uint256,address)": "4b64218b",
    "pendingVoterShares(address)": "d1ee3419",
    "proposedTokens(uint256)": "c395a474",
    "router()": "f887ea40",
    "setGarden(address)": "bbb14713",
    "shares()": "03314efa",
    "swapExactTokensForTokensSupportingFeeOnTransferTokens(address,address,uint256)": "fcc051e9",
    "tokenAccounts(address)": "1a638f36",
    "tokenIsProposed(address)": "7ef59aef",
    "transferOwnership(address)": "f2fde38b",
    "updateUserAccount(address,uint256)": "393574f1",
    "updatesMissing(address)": "259a9a8c",
    "userAccounts(address,address)": "2ff75c59",
    "userTokens(address,uint256)": "f9f411d8",
    "voices(uint256,address)": "04d6a705",
    "voteForNextTarget(address,uint256)": "fbddff37",
    "votersEpoch(address)": "a4b3dae4",
    "votersToken(address)": "1f2ff92a",
    "wcanto()": "7aa497d9",
    "yang()": "8f8c06b7",
    "yin()": "bc6b4f32",
    "zen()": "c8290efd"
  },
  "id": 45
}