{
  "abi": [
    {
      "inputs": [
        {
          "internalType": "address",
          "name": "_owner",
          "type": "address"
        },
        {
          "internalType": "uint256",
          "name": "start",
          "type": "uint256"
        },
        {
          "internalType": "uint256",
          "name": "_epochDuration",
          "type": "uint256"
        },
        {
          "internalType": "contract YinYang",
          "name": "_yin",
          "type": "address"
        },
        {
          "internalType": "contract YinYang",
          "name": "_yang",
          "type": "address"
        },
        {
          "internalType": "contract Zen",
          "name": "_zen",
          "type": "address"
        },
        {
          "internalType": "address",
          "name": "_router",
          "type": "address"
        }
      ],
      "stateMutability": "nonpayable",
      "type": "constructor"
    },
    {
      "anonymous": false,
      "inputs": [
        {
          "indexed": true,
          "internalType": "address",
          "name": "user",
          "type": "address"
        },
        {
          "indexed": false,
          "internalType": "uint256",
          "name": "amount",
          "type": "uint256"
        }
      ],
      "name": "Harvest",
      "type": "event"
    },
    {
      "anonymous": false,
      "inputs": [
        {
          "indexed": true,
          "internalType": "address",
          "name": "user",
          "type": "address"
        },
        {
          "indexed": true,
          "internalType": "address",
          "name": "newOwner",
          "type": "address"
        }
      ],
      "name": "OwnershipTransferred",
      "type": "event"
    },
    {
      "anonymous": false,
      "inputs": [
        {
          "indexed": true,
          "internalType": "address",
          "name": "user",
          "type": "address"
        },
        {
          "indexed": false,
          "internalType": "address",
          "name": "token",
          "type": "address"
        },
        {
          "indexed": false,
          "internalType": "uint256",
          "name": "amount",
          "type": "uint256"
        }
      ],
      "name": "Withdraw",
      "type": "event"
    },
    {
      "inputs": [],
      "name": "claimAllVoterShares",
      "outputs": [],
      "stateMutability": "nonpayable",
      "type": "function"
    },
    {
      "inputs": [
        {
          "internalType": "uint256",
          "name": "i",
          "type": "uint256"
        }
      ],
      "name": "claimVoterShare",
      "outputs": [],
      "stateMutability": "nonpayable",
      "type": "function"
    },
    {
      "inputs": [],
      "name": "currentTarget",
      "outputs": [
        {
          "internalType": "address",
          "name": "",
          "type": "address"
        }
      ],
      "stateMutability": "view",
      "type": "function"
    },
    {
      "inputs": [],
      "name": "epochDuration",
      "outputs": [
        {
          "internalType": "uint256",
          "name": "",
          "type": "uint256"
        }
      ],
      "stateMutability": "view",
      "type": "function"
    },
    {
      "inputs": [],
      "name": "epochStart",
      "outputs": [
        {
          "internalType": "uint256",
          "name": "",
          "type": "uint256"
        }
      ],
      "stateMutability": "view",
      "type": "function"
    },
    {
      "inputs": [],
      "name": "garden",
      "outputs": [
        {
          "internalType": "contract Garden",
          "name": "",
          "type": "address"
        }
      ],
      "stateMutability": "view",
      "type": "function"
    },
    {
      "inputs": [
        {
          "internalType": "uint256",
          "name": "index",
          "type": "uint256"
        }
      ],
      "name": "getHistory",
      "outputs": [
        {
          "internalType": "uint256",
          "name": "",
          "type": "uint256"
        },
        {
          "internalType": "address",
          "name": "",
          "type": "address"
        },
        {
          "internalType": "uint256",
          "name": "",
          "type": "uint256"
        },
        {
          "internalType": "uint256",
          "name": "",
          "type": "uint256"
        }
      ],
      "stateMutability": "view",
      "type": "function"
    },
    {
      "inputs": [],
      "name": "getHistoryLength",
      "outputs": [
        {
          "internalType": "uint256",
          "name": "length",
          "type": "uint256"
        }
      ],
      "stateMutability": "view",
      "type": "function"
    },
    {
      "inputs": [
        {
          "internalType": "uint256",
          "name": "index",
          "type": "uint256"
        }
      ],
      "name": "getProposition",
      "outputs": [
        {
          "internalType": "address",
          "name": "",
          "type": "address"
        },
        {
          "internalType": "uint256",
          "name": "",
          "type": "uint256"
        },
        {
          "internalType": "uint256",
          "name": "",
          "type": "uint256"
        }
      ],
      "stateMutability": "view",
      "type": "function"
    },
    {
      "inputs": [],
      "name": "getPropositionsLength",
      "outputs": [
        {
          "internalType": "uint256",
          "name": "",
          "type": "uint256"
        }
      ],
      "stateMutability": "view",
      "type": "function"
    },
    {
      "inputs": [
        {
          "internalType": "address",
          "name": "user",
          "type": "address"
        }
      ],
      "name": "getUserVote",
      "outputs": [
        {
          "internalType": "address",
          "name": "token",
          "type": "address"
        },
        {
          "internalType": "uint256",
          "name": "userShares",
          "type": "uint256"
        }
      ],
      "stateMutability": "view",
      "type": "function"
    },
    {
      "inputs": [],
      "name": "getWinner",
      "outputs": [
        {
          "internalType": "address",
          "name": "",
          "type": "address"
        }
      ],
      "stateMutability": "view",
      "type": "function"
    },
    {
      "inputs": [],
      "name": "harvest",
      "outputs": [],
      "stateMutability": "nonpayable",
      "type": "function"
    },
    {
      "inputs": [],
      "name": "isHarvestable",
      "outputs": [
        {
          "internalType": "bool",
          "name": "",
          "type": "bool"
        }
      ],
      "stateMutability": "view",
      "type": "function"
    },
    {
      "inputs": [
        {
          "internalType": "address",
          "name": "",
          "type": "address"
        }
      ],
      "name": "lastUpdate",
      "outputs": [
        {
          "internalType": "uint256",
          "name": "",
          "type": "uint256"
        }
      ],
      "stateMutability": "view",
      "type": "function"
    },
    {
      "inputs": [
        {
          "internalType": "address",
          "name": "recipient",
          "type": "address"
        },
        {
          "internalType": "uint256",
          "name": "amount",
          "type": "uint256"
        }
      ],
      "name": "mintZen",
      "outputs": [],
      "stateMutability": "nonpayable",
      "type": "function"
    },
    {
      "inputs": [],
      "name": "origin",
      "outputs": [
        {
          "internalType": "uint256",
          "name": "",
          "type": "uint256"
        }
      ],
      "stateMutability": "view",
      "type": "function"
    },
    {
      "inputs": [],
      "name": "owner",
      "outputs": [
        {
          "internalType": "address",
          "name": "",
          "type": "address"
        }
      ],
      "stateMutability": "view",
      "type": "function"
    },
    {
      "inputs": [
        {
          "internalType": "uint256",
          "name": "",
          "type": "uint256"
        },
        {
          "internalType": "address",
          "name": "",
          "type": "address"
        }
      ],
      "name": "participations",
      "outputs": [
        {
          "internalType": "uint256",
          "name": "",
          "type": "uint256"
        }
      ],
      "stateMutability": "view",
      "type": "function"
    },
    {
      "inputs": [
        {
          "internalType": "address",
          "name": "user",
          "type": "address"
        }
      ],
      "name": "pendingVoterShares",
      "outputs": [
        {
          "components": [
            {
              "internalType": "address",
              "name": "token",
              "type": "address"
            },
            {
              "internalType": "uint8",
              "name": "decimals",
              "type": "uint8"
            },
            {
              "internalType": "uint256",
              "name": "amount",
              "type": "uint256"
            }
          ],
          "internalType": "struct Temple.ShareInfo[]",
          "name": "",
          "type": "tuple[]"
        }
      ],
      "stateMutability": "view",
      "type": "function"
    },
    {
      "inputs": [
        {
          "internalType": "uint256",
          "name": "",
          "type": "uint256"
        }
      ],
      "name": "proposedTokens",
      "outputs": [
        {
          "internalType": "address",
          "name": "",
          "type": "address"
        }
      ],
      "stateMutability": "view",
      "type": "function"
    },
    {
      "inputs": [],
      "name": "router",
      "outputs": [
        {
          "internalType": "contract IBaseV1Router",
          "name": "",
          "type": "address"
        }
      ],
      "stateMutability": "view",
      "type": "function"
    },
    {
      "inputs": [
        {
          "internalType": "contract Garden",
          "name": "_garden",
          "type": "address"
        }
      ],
      "name": "setGarden",
      "outputs": [],
      "stateMutability": "nonpayable",
      "type": "function"
    },
    {
      "inputs": [],
      "name": "shares",
      "outputs": [
        {
          "internalType": "uint256",
          "name": "",
          "type": "uint256"
        }
      ],
      "stateMutability": "view",
      "type": "function"
    },
    {
      "inputs": [
        {
          "internalType": "address",
          "name": "",
          "type": "address"
        }
      ],
      "name": "tokenAccounts",
      "outputs": [
        {
          "internalType": "uint256",
          "name": "amount",
          "type": "uint256"
        },
        {
          "internalType": "uint256",
          "name": "shares",
          "type": "uint256"
        }
      ],
      "stateMutability": "view",
      "type": "function"
    },
    {
      "inputs": [
        {
          "internalType": "address",
          "name": "",
          "type": "address"
        }
      ],
      "name": "tokenIsProposed",
      "outputs": [
        {
          "internalType": "uint256",
          "name": "",
          "type": "uint256"
        }
      ],
      "stateMutability": "view",
      "type": "function"
    },
    {
      "inputs": [
        {
          "internalType": "address",
          "name": "newOwner",
          "type": "address"
        }
      ],
      "name": "transferOwnership",
      "outputs": [],
      "stateMutability": "nonpayable",
      "type": "function"
    },
    {
      "inputs": [
        {
          "internalType": "uint256",
          "name": "end",
          "type": "uint256"
        }
      ],
      "name": "updateUserAccount",
      "outputs": [],
      "stateMutability": "nonpayable",
      "type": "function"
    },
    {
      "inputs": [
        {
          "internalType": "address",
          "name": "user",
          "type": "address"
        }
      ],
      "name": "updatesMissing",
      "outputs": [
        {
          "internalType": "uint256",
          "name": "",
          "type": "uint256"
        }
      ],
      "stateMutability": "view",
      "type": "function"
    },
    {
      "inputs": [
        {
          "internalType": "address",
          "name": "",
          "type": "address"
        },
        {
          "internalType": "address",
          "name": "",
          "type": "address"
        }
      ],
      "name": "userAccounts",
      "outputs": [
        {
          "internalType": "uint256",
          "name": "",
          "type": "uint256"
        }
      ],
      "stateMutability": "view",
      "type": "function"
    },
    {
      "inputs": [
        {
          "internalType": "address",
          "name": "",
          "type": "address"
        },
        {
          "internalType": "uint256",
          "name": "",
          "type": "uint256"
        }
      ],
      "name": "userTokens",
      "outputs": [
        {
          "internalType": "address",
          "name": "",
          "type": "address"
        }
      ],
      "stateMutability": "view",
      "type": "function"
    },
    {
      "inputs": [
        {
          "internalType": "uint256",
          "name": "",
          "type": "uint256"
        },
        {
          "internalType": "address",
          "name": "",
          "type": "address"
        }
      ],
      "name": "voices",
      "outputs": [
        {
          "internalType": "uint256",
          "name": "",
          "type": "uint256"
        }
      ],
      "stateMutability": "view",
      "type": "function"
    },
    {
      "inputs": [
        {
          "internalType": "address",
          "name": "proposition",
          "type": "address"
        },
        {
          "internalType": "uint256",
          "name": "amount",
          "type": "uint256"
        }
      ],
      "name": "voteForNextTarget",
      "outputs": [],
      "stateMutability": "nonpayable",
      "type": "function"
    },
    {
      "inputs": [
        {
          "internalType": "address",
          "name": "",
          "type": "address"
        }
      ],
      "name": "votersEpoch",
      "outputs": [
        {
          "internalType": "uint256",
          "name": "",
          "type": "uint256"
        }
      ],
      "stateMutability": "view",
      "type": "function"
    },
    {
      "inputs": [
        {
          "internalType": "address",
          "name": "",
          "type": "address"
        }
      ],
      "name": "votersToken",
      "outputs": [
        {
          "internalType": "address",
          "name": "",
          "type": "address"
        }
      ],
      "stateMutability": "view",
      "type": "function"
    },
    {
      "inputs": [],
      "name": "wcanto",
      "outputs": [
        {
          "internalType": "address",
          "name": "",
          "type": "address"
        }
      ],
      "stateMutability": "view",
      "type": "function"
    },
    {
      "inputs": [],
      "name": "yang",
      "outputs": [
        {
          "internalType": "contract YinYang",
          "name": "",
          "type": "address"
        }
      ],
      "stateMutability": "view",
      "type": "function"
    },
    {
      "inputs": [],
      "name": "yin",
      "outputs": [
        {
          "internalType": "contract YinYang",
          "name": "",
          "type": "address"
        }
      ],
      "stateMutability": "view",
      "type": "function"
    },
    {
      "inputs": [],
      "name": "zen",
      "outputs": [
        {
          "internalType": "contract Zen",
          "name": "",
          "type": "address"
        }
      ],
      "stateMutability": "view",
      "type": "function"
    }
  ],
  "bytecode": {
    "object": "0x6080604052600b80546001600160a01b03191690553480156200002157600080fd5b5060405162002b6538038062002b658339810160408190526200004491620005a4565b600080546001600160a01b0319166001600160a01b03891690811782556040518992907f8be0079c531659141344cd1fd0a4f28419497f9722a3daafe3b4186f6b6457e0908290a350604051632210724360e11b815232600482015273ecf044c5b4b867cfda001101c617ecd347095b4490634420e486906024016020604051808303816000875af1158015620000df573d6000803e3d6000fd5b505050506040513d601f19601f8201168201806040525081019062000105919062000638565b50600185905560028690556003869055620001216000620004d1565b600680546001600160a01b038087166001600160a01b03199283161790925560078054868416908316179055600880548584169216919091179055604080516315ab88c960e31b815290519183169163ad5c4648916004808201926020929091908290030181865afa1580156200019c573d6000803e3d6000fd5b505050506040513d601f19601f82011682018060405250810190620001c2919062000652565b600480546001600160a01b039283166001600160a01b03199182161782556005805485851692168217905560065460405163095ea7b360e01b81529283019190915260001960248301529091169063095ea7b3906044016020604051808303816000875af115801562000239573d6000803e3d6000fd5b505050506040513d601f19601f820116820180604052508101906200025f919062000679565b5060075460405163095ea7b360e01b81526001600160a01b03838116600483015260001960248301529091169063095ea7b3906044016020604051808303816000875af1158015620002b5573d6000803e3d6000fd5b505050506040513d601f19601f82011682018060405250810190620002db919062000679565b50600660009054906101000a90046001600160a01b03166001600160a01b031663999b93af6040518163ffffffff1660e01b8152600401602060405180830381865afa15801562000330573d6000803e3d6000fd5b505050506040513d601f19601f8201168201806040525081019062000356919062000652565b60405163095ea7b360e01b81526001600160a01b0383811660048301526000196024830152919091169063095ea7b3906044016020604051808303816000875af1158015620003a9573d6000803e3d6000fd5b505050506040513d601f19601f82011682018060405250810190620003cf919062000679565b50600760009054906101000a90046001600160a01b03166001600160a01b031663999b93af6040518163ffffffff1660e01b8152600401602060405180830381865afa15801562000424573d6000803e3d6000fd5b505050506040513d601f19601f820116820180604052508101906200044a919062000652565b60405163095ea7b360e01b81526001600160a01b0383811660048301526000196024830152919091169063095ea7b3906044016020604051808303816000875af11580156200049d573d6000803e3d6000fd5b505050506040513d601f19601f82011682018060405250810190620004c3919062000679565b50505050505050506200069d565b600d54603211620005285760405162461bcd60e51b815260206004820152601560248201527f746f6f206d616e792070726f706f736974696f6e730000000000000000000000604482015260640160405180910390fd5b6002546001600160a01b039091166000818152600c6020526040812092909255600d805460018101825592527fd7b6990105719101dabeb77144f2a3385c8033acd3af97e9423a695e81ad1eb590910180546001600160a01b0319169091179055565b6001600160a01b0381168114620005a157600080fd5b50565b600080600080600080600060e0888a031215620005c057600080fd5b8751620005cd816200058b565b8097505060208801519550604088015194506060880151620005ef816200058b565b608089015190945062000602816200058b565b60a089015190935062000615816200058b565b60c089015190925062000628816200058b565b8091505092959891949750929550565b6000602082840312156200064b57600080fd5b5051919050565b6000602082840312156200066557600080fd5b815162000672816200058b565b9392505050565b6000602082840312156200068c57600080fd5b815180151581146200067257600080fd5b6124b880620006ad6000396000f3fe608060405234801561001057600080fd5b506004361061023d5760003560e01c80637ef59aef1161013b578063c395a474116100b8578063d4923d4e1161007c578063d4923d4e146105a3578063f2fde38b146105d5578063f887ea40146105e8578063f9f411d8146105fb578063fbddff371461060e57600080fd5b8063c395a47414610502578063c8290efd14610515578063c8691b2a14610528578063cb03fb1e14610563578063d1ee34191461058357600080fd5b8063a1bcd45a116100ff578063a1bcd45a146104a1578063a2c71e7c146104b4578063a4b3dae4146104bc578063bbb14713146104dc578063bc6b4f32146104ef57600080fd5b80637ef59aef1461044a5780638da5cb5b1461046a5780638e7ea5b21461047d5780638f8c06b714610485578063938b5f321461049857600080fd5b806339148c53116101c95780635478f4681161018d5780635478f468146103d157806356ba88b8146103d9578063622836fe146103ec5780637aa497d9146103ff5780637edaea561461041257600080fd5b806339148c531461036a5780634641257d1461037d5780634b64218b146103855780634ff0876a146103b05780635175171e146103b957600080fd5b80631e34b2f7116102105780631e34b2f7146102ce5780631f2ff92a146102d8578063259a9a8c146103195780632ff75c591461032c57806333b4d7e31461035757600080fd5b806303314efa1461024257806304d6a7051461025e57806315e5a1e5146102895780631a638f3614610292575b600080fd5b61024b600f5481565b6040519081526020015b60405180910390f35b61024b61026c36600461219a565b600e60209081526000928352604080842090915290825290205481565b61024b60025481565b6102b96102a03660046121ca565b6012602052600090815260409020805460019091015482565b60408051928352602083019190915201610255565b6102d6610621565b005b6103016102e63660046121ca565b6010602052600090815260409020546001600160a01b031681565b6040516001600160a01b039091168152602001610255565b61024b6103273660046121ca565b610668565b61024b61033a3660046121ee565b601360209081526000928352604080842090915290825290205481565b6102d661036536600461221c565b610694565b600b54610301906001600160a01b031681565b6102d6610747565b61024b61039336600461219a565b601460209081526000928352604080842090915290825290205481565b61024b60015481565b6103c16110f6565b6040519015158152602001610255565b600a5461024b565b600954610301906001600160a01b031681565b6102d66103fa366004612248565b61110f565b600454610301906001600160a01b031681565b610425610420366004612248565b61111c565b604080516001600160a01b039094168452602084019290925290820152606001610255565b61024b6104583660046121ca565b600c6020526000908152604090205481565b600054610301906001600160a01b031681565b6103016111a8565b600754610301906001600160a01b031681565b61024b60035481565b6102d66104af366004612248565b6112a2565b600d5461024b565b61024b6104ca3660046121ca565b60116020526000908152604090205481565b6102d66104ea3660046121ca565b6112c7565b600654610301906001600160a01b031681565b610301610510366004612248565b611332565b600854610301906001600160a01b031681565b61053b610536366004612248565b61135c565b604080519485526001600160a01b039093166020850152918301526060820152608001610255565b61024b6105713660046121ca565b60166020526000908152604090205481565b6105966105913660046121ca565b61146e565b6040516102559190612261565b6105b66105b13660046121ca565b611666565b604080516001600160a01b039093168352602083019190915201610255565b6102d66105e33660046121ca565b6116bf565b600554610301906001600160a01b031681565b61030161060936600461221c565b611753565b6102d661061c36600461221c565b61178b565b600a5461062f9033906119a1565b600061063a3361146e565b905060005b8151811015610664576106528282611bc5565b8061065c816122dc565b91505061063f565b5050565b6001600160a01b038116600090815260166020526040812054600a5461068e91906122f5565b92915050565b6009546001600160a01b031633146106dd5760405162461bcd60e51b815260206004820152600760248201526610a3b0b93232b760c91b60448201526064015b60405180910390fd5b6008546040516308934a5f60e31b81526001600160a01b038481166004830152602482018490529091169063449a52f890604401600060405180830381600087803b15801561072b57600080fd5b505af115801561073f573d6000803e3d6000fd5b505050505050565b61074f6110f6565b61078a5760405162461bcd60e51b815260206004820152600c60248201526b216861727665737461626c6560a01b60448201526064016106d4565b60006001546002544261079d91906122f5565b6107a79190612308565b9050806001546107b7919061232a565b6002546107c49190612341565b6002556107cf6111a8565b600b80546001600160a01b0319166001600160a01b03929092169182179055600f546000918252601260205260409091206001015461080e9190612341565b600b80546001600160a01b039081166000908152601260209081526040808320600190810196909655805180820182526002548152815160608101835295548516808752600a8054808752600e86528487209287529185528386205488860152600f8054898601528386019889529882018155855290517fc65a7bb8d6351c1cf70c95a316cc6a92839c986682d98bc35f958f4883f9d2a8600490920291820155945180517fc65a7bb8d6351c1cf70c95a316cc6a92839c986682d98bc35f958f4883f9d2a9870180546001600160a01b0319169190961617909455908301517fc65a7bb8d6351c1cf70c95a316cc6a92839c986682d98bc35f958f4883f9d2aa85015591909101517fc65a7bb8d6351c1cf70c95a316cc6a92839c986682d98bc35f958f4883f9d2ab909201919091559081905561094f90600d90612153565b61095960006120a6565b600b546001600160a01b03166109b057600a546109779033906119a1565b6040516000815233907fc9695243a805adb74c91f28311176c65b417e842d5699893cef56d18bfa48cba9060200160405180910390a250565b604080516002808252606082018352600092602083019080368337505060045482519293506001600160a01b03169183915060019081106109f3576109f361236a565b6001600160a01b0392831660209182029290920101526006546040516370a0823160e01b815230600482015260009291909116906370a0823190602401602060405180830381865afa158015610a4d573d6000803e3d6000fd5b505050506040513d601f19601f82011682018060405250810190610a719190612380565b118015610b4a57506006546040805163a8aa1b3160e01b815290516000926001600160a01b03169163a8aa1b319160048083019260209291908290030181865afa158015610ac3573d6000803e3d6000fd5b505050506040513d601f19601f82011682018060405250810190610ae79190612399565b6001600160a01b03166318160ddd6040518163ffffffff1660e01b8152600401602060405180830381865afa158015610b24573d6000803e3d6000fd5b505050506040513d601f19601f82011682018060405250810190610b489190612380565b115b15610c5a5760065481516001600160a01b03909116908290600090610b7157610b7161236a565b6001600160a01b0392831660209182029290920101526005546006546040516370a0823160e01b815230600482015291831692635c11d795929116906370a0823190602401602060405180830381865afa158015610bd3573d6000803e3d6000fd5b505050506040513d601f19601f82011682018060405250810190610bf79190612380565b60008430610c0742610168612341565b6040518663ffffffff1660e01b8152600401610c279594939291906123b6565b600060405180830381600087803b158015610c4157600080fd5b505af1158015610c55573d6000803e3d6000fd5b505050505b6007546040516370a0823160e01b81523060048201526000916001600160a01b0316906370a0823190602401602060405180830381865afa158015610ca3573d6000803e3d6000fd5b505050506040513d601f19601f82011682018060405250810190610cc79190612380565b118015610da057506007546040805163a8aa1b3160e01b815290516000926001600160a01b03169163a8aa1b319160048083019260209291908290030181865afa158015610d19573d6000803e3d6000fd5b505050506040513d601f19601f82011682018060405250810190610d3d9190612399565b6001600160a01b03166318160ddd6040518163ffffffff1660e01b8152600401602060405180830381865afa158015610d7a573d6000803e3d6000fd5b505050506040513d601f19601f82011682018060405250810190610d9e9190612380565b115b15610eb05760075481516001600160a01b03909116908290600090610dc757610dc761236a565b6001600160a01b0392831660209182029290920101526005546007546040516370a0823160e01b815230600482015291831692635c11d795929116906370a0823190602401602060405180830381865afa158015610e29573d6000803e3d6000fd5b505050506040513d601f19601f82011682018060405250810190610e4d9190612380565b60008430610e5d42610168612341565b6040518663ffffffff1660e01b8152600401610e7d9594939291906123b6565b600060405180830381600087803b158015610e9757600080fd5b505af1158015610eab573d6000803e3d6000fd5b505050505b600454600b546001600160a01b039081169116146110065760045481516001600160a01b03909116908290600090610eea57610eea61236a565b6001600160a01b039283166020918202929092010152600b54825191169082906001908110610f1b57610f1b61236a565b6001600160a01b039283166020918202929092010152600554600480546040516370a0823160e01b8152309281019290925291831692635c11d7959216906370a0823190602401602060405180830381865afa158015610f7f573d6000803e3d6000fd5b505050506040513d601f19601f82011682018060405250810190610fa39190612380565b60008430610fb342610168612341565b6040518663ffffffff1660e01b8152600401610fd39594939291906123b6565b600060405180830381600087803b158015610fed57600080fd5b505af1158015611001573d6000803e3d6000fd5b505050505b600b546040516370a0823160e01b81523060048201526001600160a01b03909116906370a0823190602401602060405180830381865afa15801561104e573d6000803e3d6000fd5b505050506040513d601f19601f820116820180604052508101906110729190612380565b600b546001600160a01b0316600090815260126020526040902055600a5461109b9033906119a1565b600b546001600160a01b03166000908152601260205260409081902054905133917fc9695243a805adb74c91f28311176c65b417e842d5699893cef56d18bfa48cba916110ea91815260200190565b60405180910390a25050565b60006001546002546111089190612341565b4211905090565b61111933826119a1565b50565b6000806000600d84815481106111345761113461236a565b6000918252602080832090910154600a548352600e90915260408220600d80546001600160a01b03909316939192889081106111725761117261236a565b60009182526020808320909101546001600160a01b03168352820192909252604001902054600f54919450925090509193909250565b60008080805b600d5481101561129b57600a546000908152600e60205260408120600d805486939190859081106111e1576111e161236a565b60009182526020808320909101546001600160a01b03168352820192909252604001902054111561128957600a546000908152600e60205260408120600d8054919291849081106112345761123461236a565b60009182526020808320909101546001600160a01b03168352820192909252604001902054600d805491945090829081106112715761127161236a565b6000918252602090912001546001600160a01b031691505b80611293816122dc565b9150506111ae565b5092915050565b600a546112b09033906119a1565b60006112bb3361146e565b90506106648183611bc5565b6000546001600160a01b031633146113105760405162461bcd60e51b815260206004820152600c60248201526b15539055551213d49256915160a21b60448201526064016106d4565b600980546001600160a01b0319166001600160a01b0392909216919091179055565b600d818154811061134257600080fd5b6000918252602090912001546001600160a01b0316905081565b600080600080600a8054905085106113b65760405162461bcd60e51b815260206004820152601a60248201527f687973746f727920696e646578206f7574206f662072616e676500000000000060448201526064016106d4565b600a85815481106113c9576113c961236a565b906000526020600020906004020160000154600a86815481106113ee576113ee61236a565b6000918252602090912060016004909202010154600a80546001600160a01b0390921691889081106114225761142261236a565b906000526020600020906004020160010160010154600a888154811061144a5761144a61236a565b90600052602060002090600402016001016002015493509350935093509193509193565b6001600160a01b0381166000908152601560205260408120546060919067ffffffffffffffff8111156114a3576114a3612354565b6040519080825280602002602001820160405280156114ee57816020015b60408051606081018252600080825260208083018290529282015282526000199092019101816114c15790505b50905060005b6001600160a01b03841660009081526015602052604090205481101561129b576001600160a01b038416600090815260156020526040812080548390811061153e5761153e61236a565b9060005260206000200160009054906101000a90046001600160a01b031690506040518060600160405280826001600160a01b03168152602001826001600160a01b031663313ce5676040518163ffffffff1660e01b8152600401602060405180830381865afa1580156115b6573d6000803e3d6000fd5b505050506040513d601f19601f820116820180604052508101906115da9190612427565b60ff1681526001600160a01b0380841660008181526012602081815260408084206001810154968e16855260138352818520958552948252909220549082529154930192611628919061232a565b6116329190612308565b8152508383815181106116475761164761236a565b602002602001018190525050808061165e906122dc565b9150506114f4565b600080600061167484610668565b111561168557506000928392509050565b50506001600160a01b03908116600081815260106020908152604080832054600a5484526014835281842094845293909152902054911691565b6000546001600160a01b031633146117085760405162461bcd60e51b815260206004820152600c60248201526b15539055551213d49256915160a21b60448201526064016106d4565b600080546001600160a01b0319166001600160a01b0383169081178255604051909133917f8be0079c531659141344cd1fd0a4f28419497f9722a3daafe3b4186f6b6457e09190a350565b6015602052816000526040600020818154811061176f57600080fd5b6000918252602090912001546001600160a01b03169150829050565b600254600a54336000908152601160205260409020548290036118435760008181526014602090815260408083203384528252808320546010835281842054858552600e84528285206001600160a01b0390911680865293529083208054919384926117f89084906122f5565b9250508190555081600f600082825461181191906122f5565b9091555061182190508583612341565b60008481526014602090815260408083203384529091529020555061188b9050565b61184d33826119a1565b336000818152601160209081526040808320869055848352601482528083209383529290529081208054859290611885908490612341565b90915550505b33600081815260106020908152604080832080546001600160a01b0319166001600160a01b038a169081179091558584526014835281842094845293825280832054858452600e835281842094845293909152812080548392906118f0908490612341565b9250508190555080600f60008282546119099190612341565b909155505060085460405163079cc67960e41b8152336004820152602481018690526001600160a01b03909116906379cc679090604401600060405180830381600087803b15801561195a57600080fd5b505af115801561196e573d6000803e3d6000fd5b505050506001600160a01b0385166000908152600c6020526040902054831461199a5761199a856120a6565b5050505050565b6001600160a01b0382166000908152601660205260409020545b81811015611bc05760008181526014602090815260408083206001600160a01b038716845290915290205415611b8a5760008181526014602081815260408084206001600160a01b038816855290915282205491611a1a846001612341565b8152602080820192909252604090810160009081206001600160a01b038816825283528181209390935560159091529020600a805483908110611a5f57611a5f61236a565b6000918252602080832060016004909302018201548454928301855593835280832090910180546001600160a01b0319166001600160a01b039485161790558382526014815260408083209387168352928152828220546013909152918120600a805491929185908110611ad557611ad561236a565b60009182526020808320600160049093020191909101546001600160a01b03168352820192909252604001902054611b0d9190612341565b6001600160a01b0384166000908152601360205260408120600a805491929185908110611b3c57611b3c61236a565b60009182526020808320600160049093020191909101546001600160a01b03908116845283820194909452604092830182209490945584815260148452818120928716815291909252908120555b611b95816001612341565b6001600160a01b03841660009081526016602052604090205580611bb8816122dc565b9150506119bb565b505050565b6000828281518110611bd957611bd961236a565b6020908102919091010151516040516370a0823160e01b81523060048201526001600160a01b03909116906370a0823190602401602060405180830381865afa158015611c2a573d6000803e3d6000fd5b505050506040513d601f19601f82011682018060405250810190611c4e9190612380565b905080838381518110611c6357611c6361236a565b6020026020010151604001511115611c995780838381518110611c8857611c8861236a565b602002602001015160400181815250505b3360009081526013602052604081208451909190859085908110611cbf57611cbf61236a565b6020026020010151600001516001600160a01b03166001600160a01b031681526020019081526020016000205460126000858581518110611d0257611d0261236a565b6020026020010151600001516001600160a01b03166001600160a01b0316815260200190815260200160002060010154611d3c91906122f5565b60126000858581518110611d5257611d5261236a565b6020026020010151600001516001600160a01b03166001600160a01b0316815260200190815260200160002060010181905550828281518110611d9757611d9761236a565b60200260200101516040015160126000858581518110611db957611db961236a565b6020026020010151600001516001600160a01b03166001600160a01b0316815260200190815260200160002060000154611df391906122f5565b60126000858581518110611e0957611e0961236a565b602090810291909101810151516001600160a01b031682528181019290925260409081016000908120939093553383526013909152812084518290869086908110611e5657611e5661236a565b602090810291909101810151516001600160a01b03168252818101929092526040908101600090812093909355338352601590915290208054611e9b906001906122f5565b81548110611eab57611eab61236a565b60009182526020808320909101543383526015909152604090912080546001600160a01b039092169184908110611ee457611ee461236a565b600091825260208083209190910180546001600160a01b0319166001600160a01b039490941693909317909255338152601590915260409020805480611f2c57611f2c61244a565b600082815260209020810160001990810180546001600160a01b03191690550190558251839083908110611f6257611f6261236a565b6020026020010151600001516001600160a01b031663a9059cbb33858581518110611f8f57611f8f61236a565b6020026020010151604001516040518363ffffffff1660e01b8152600401611fcc9291906001600160a01b03929092168252602082015260400190565b6020604051808303816000875af1158015611feb573d6000803e3d6000fd5b505050506040513d601f19601f8201168201806040525081019061200f9190612460565b50336001600160a01b03167f9b1bfa7fa9ee420a16e124f794c35ac9f90472acc99140eb2f6447c714cad8eb84848151811061204d5761204d61236a565b60200260200101516000015185858151811061206b5761206b61236a565b6020026020010151604001516040516120999291906001600160a01b03929092168252602082015260400190565b60405180910390a2505050565b600d546032116120f05760405162461bcd60e51b8152602060048201526015602482015274746f6f206d616e792070726f706f736974696f6e7360581b60448201526064016106d4565b6002546001600160a01b039091166000818152600c6020526040812092909255600d805460018101825592527fd7b6990105719101dabeb77144f2a3385c8033acd3af97e9423a695e81ad1eb590910180546001600160a01b0319169091179055565b508054600082559060005260206000209081019061111991905b80821115612181576000815560010161216d565b5090565b6001600160a01b038116811461111957600080fd5b600080604083850312156121ad57600080fd5b8235915060208301356121bf81612185565b809150509250929050565b6000602082840312156121dc57600080fd5b81356121e781612185565b9392505050565b6000806040838503121561220157600080fd5b823561220c81612185565b915060208301356121bf81612185565b6000806040838503121561222f57600080fd5b823561223a81612185565b946020939093013593505050565b60006020828403121561225a57600080fd5b5035919050565b602080825282518282018190526000919060409081850190868401855b828110156122b957815180516001600160a01b031685528681015160ff1687860152850151858501526060909301929085019060010161227e565b5091979650505050505050565b634e487b7160e01b600052601160045260246000fd5b6000600182016122ee576122ee6122c6565b5060010190565b8181038181111561068e5761068e6122c6565b60008261232557634e487b7160e01b600052601260045260246000fd5b500490565b808202811582820484141761068e5761068e6122c6565b8082018082111561068e5761068e6122c6565b634e487b7160e01b600052604160045260246000fd5b634e487b7160e01b600052603260045260246000fd5b60006020828403121561239257600080fd5b5051919050565b6000602082840312156123ab57600080fd5b81516121e781612185565b600060a082018783526020878185015260a0604085015281875180845260c086019150828901935060005b818110156124065784516001600160a01b0316835293830193918301916001016123e1565b50506001600160a01b03969096166060850152505050608001529392505050565b60006020828403121561243957600080fd5b815160ff811681146121e757600080fd5b634e487b7160e01b600052603160045260246000fd5b60006020828403121561247257600080fd5b815180151581146121e757600080fdfea26469706673582212204a02803667be2e4fafcf2eba693d07874abf2d507edb4bb09217116048ed77d364736f6c63430008120033",
    "linkReferences": {}
  },
  "methodIdentifiers": {
    "claimAllVoterShares()": "1e34b2f7",
    "claimVoterShare(uint256)": "a1bcd45a",
    "currentTarget()": "39148c53",
    "epochDuration()": "4ff0876a",
    "epochStart()": "15e5a1e5",
    "garden()": "56ba88b8",
    "getHistory(uint256)": "c8691b2a",
    "getHistoryLength()": "5478f468",
    "getProposition(uint256)": "7edaea56",
    "getPropositionsLength()": "a2c71e7c",
    "getUserVote(address)": "d4923d4e",
    "getWinner()": "8e7ea5b2",
    "harvest()": "4641257d",
    "isHarvestable()": "5175171e",
    "lastUpdate(address)": "cb03fb1e",
    "mintZen(address,uint256)": "33b4d7e3",
    "origin()": "938b5f32",
    "owner()": "8da5cb5b",
    "participations(uint256,address)": "4b64218b",
    "pendingVoterShares(address)": "d1ee3419",
    "proposedTokens(uint256)": "c395a474",
    "router()": "f887ea40",
    "setGarden(address)": "bbb14713",
    "shares()": "03314efa",
    "tokenAccounts(address)": "1a638f36",
    "tokenIsProposed(address)": "7ef59aef",
    "transferOwnership(address)": "f2fde38b",
    "updateUserAccount(uint256)": "622836fe",
    "updatesMissing(address)": "259a9a8c",
    "userAccounts(address,address)": "2ff75c59",
    "userTokens(address,uint256)": "f9f411d8",
    "voices(uint256,address)": "04d6a705",
    "voteForNextTarget(address,uint256)": "fbddff37",
    "votersEpoch(address)": "a4b3dae4",
    "votersToken(address)": "1f2ff92a",
    "wcanto()": "7aa497d9",
    "yang()": "8f8c06b7",
    "yin()": "bc6b4f32",
    "zen()": "c8290efd"
  },
  "id": 25
}