{
  "abi": [
    {
      "inputs": [
        {
          "internalType": "address",
          "name": "_owner",
          "type": "address"
        },
        {
          "internalType": "uint256",
          "name": "start",
          "type": "uint256"
        },
        {
          "internalType": "uint256",
          "name": "_epochDuration",
          "type": "uint256"
        },
        {
          "internalType": "contract YinYang",
          "name": "_yin",
          "type": "address"
        },
        {
          "internalType": "contract YinYang",
          "name": "_yang",
          "type": "address"
        },
        {
          "internalType": "contract Zen",
          "name": "_zen",
          "type": "address"
        },
        {
          "internalType": "address",
          "name": "_router",
          "type": "address"
        }
      ],
      "stateMutability": "nonpayable",
      "type": "constructor"
    },
    {
      "anonymous": false,
      "inputs": [
        {
          "indexed": true,
          "internalType": "address",
          "name": "user",
          "type": "address"
        },
        {
          "indexed": false,
          "internalType": "uint256",
          "name": "amount",
          "type": "uint256"
        }
      ],
      "name": "Harvest",
      "type": "event"
    },
    {
      "anonymous": false,
      "inputs": [
        {
          "indexed": true,
          "internalType": "address",
          "name": "user",
          "type": "address"
        },
        {
          "indexed": true,
          "internalType": "address",
          "name": "newOwner",
          "type": "address"
        }
      ],
      "name": "OwnershipTransferred",
      "type": "event"
    },
    {
      "anonymous": false,
      "inputs": [
        {
          "indexed": true,
          "internalType": "address",
          "name": "user",
          "type": "address"
        },
        {
          "indexed": false,
          "internalType": "address",
          "name": "token",
          "type": "address"
        },
        {
          "indexed": false,
          "internalType": "uint256",
          "name": "amount",
          "type": "uint256"
        }
      ],
      "name": "Withdraw",
      "type": "event"
    },
    {
      "inputs": [],
      "name": "claimAllVoterShares",
      "outputs": [],
      "stateMutability": "nonpayable",
      "type": "function"
    },
    {
      "inputs": [
        {
          "internalType": "uint256",
          "name": "i",
          "type": "uint256"
        }
      ],
      "name": "claimVoterShare",
      "outputs": [],
      "stateMutability": "nonpayable",
      "type": "function"
    },
    {
      "inputs": [],
      "name": "currentTarget",
      "outputs": [
        {
          "internalType": "address",
          "name": "",
          "type": "address"
        }
      ],
      "stateMutability": "view",
      "type": "function"
    },
    {
      "inputs": [],
      "name": "epochDuration",
      "outputs": [
        {
          "internalType": "uint256",
          "name": "",
          "type": "uint256"
        }
      ],
      "stateMutability": "view",
      "type": "function"
    },
    {
      "inputs": [],
      "name": "epochStart",
      "outputs": [
        {
          "internalType": "uint256",
          "name": "",
          "type": "uint256"
        }
      ],
      "stateMutability": "view",
      "type": "function"
    },
    {
      "inputs": [],
      "name": "garden",
      "outputs": [
        {
          "internalType": "contract Garden",
          "name": "",
          "type": "address"
        }
      ],
      "stateMutability": "view",
      "type": "function"
    },
    {
      "inputs": [
        {
          "internalType": "uint256",
          "name": "index",
          "type": "uint256"
        }
      ],
      "name": "getHistory",
      "outputs": [
        {
          "internalType": "uint256",
          "name": "",
          "type": "uint256"
        },
        {
          "internalType": "address",
          "name": "",
          "type": "address"
        },
        {
          "internalType": "uint256",
          "name": "",
          "type": "uint256"
        },
        {
          "internalType": "uint256",
          "name": "",
          "type": "uint256"
        }
      ],
      "stateMutability": "view",
      "type": "function"
    },
    {
      "inputs": [],
      "name": "getHistoryLength",
      "outputs": [
        {
          "internalType": "uint256",
          "name": "length",
          "type": "uint256"
        }
      ],
      "stateMutability": "view",
      "type": "function"
    },
    {
      "inputs": [
        {
          "internalType": "uint256",
          "name": "index",
          "type": "uint256"
        }
      ],
      "name": "getProposition",
      "outputs": [
        {
          "internalType": "address",
          "name": "",
          "type": "address"
        },
        {
          "internalType": "uint256",
          "name": "",
          "type": "uint256"
        },
        {
          "internalType": "uint256",
          "name": "",
          "type": "uint256"
        }
      ],
      "stateMutability": "view",
      "type": "function"
    },
    {
      "inputs": [],
      "name": "getPropositionsLength",
      "outputs": [
        {
          "internalType": "uint256",
          "name": "",
          "type": "uint256"
        }
      ],
      "stateMutability": "view",
      "type": "function"
    },
    {
      "inputs": [
        {
          "internalType": "address",
          "name": "user",
          "type": "address"
        }
      ],
      "name": "getUserVote",
      "outputs": [
        {
          "internalType": "address",
          "name": "token",
          "type": "address"
        },
        {
          "internalType": "uint256",
          "name": "userShares",
          "type": "uint256"
        }
      ],
      "stateMutability": "view",
      "type": "function"
    },
    {
      "inputs": [],
      "name": "getWinner",
      "outputs": [
        {
          "internalType": "address",
          "name": "",
          "type": "address"
        }
      ],
      "stateMutability": "view",
      "type": "function"
    },
    {
      "inputs": [],
      "name": "harvest",
      "outputs": [],
      "stateMutability": "nonpayable",
      "type": "function"
    },
    {
      "inputs": [],
      "name": "isHarvestable",
      "outputs": [
        {
          "internalType": "bool",
          "name": "",
          "type": "bool"
        }
      ],
      "stateMutability": "view",
      "type": "function"
    },
    {
      "inputs": [
        {
          "internalType": "address",
          "name": "recipient",
          "type": "address"
        },
        {
          "internalType": "uint256",
          "name": "amount",
          "type": "uint256"
        }
      ],
      "name": "mintZen",
      "outputs": [],
      "stateMutability": "nonpayable",
      "type": "function"
    },
    {
      "inputs": [],
      "name": "note",
      "outputs": [
        {
          "internalType": "address",
          "name": "",
          "type": "address"
        }
      ],
      "stateMutability": "view",
      "type": "function"
    },
    {
      "inputs": [],
      "name": "numberProposedTokens",
      "outputs": [
        {
          "internalType": "uint256",
          "name": "",
          "type": "uint256"
        }
      ],
      "stateMutability": "view",
      "type": "function"
    },
    {
      "inputs": [],
      "name": "origin",
      "outputs": [
        {
          "internalType": "uint256",
          "name": "",
          "type": "uint256"
        }
      ],
      "stateMutability": "view",
      "type": "function"
    },
    {
      "inputs": [],
      "name": "owner",
      "outputs": [
        {
          "internalType": "address",
          "name": "",
          "type": "address"
        }
      ],
      "stateMutability": "view",
      "type": "function"
    },
    {
      "inputs": [
        {
          "internalType": "uint256",
          "name": "",
          "type": "uint256"
        },
        {
          "internalType": "address",
          "name": "",
          "type": "address"
        }
      ],
      "name": "participations",
      "outputs": [
        {
          "internalType": "uint256",
          "name": "",
          "type": "uint256"
        }
      ],
      "stateMutability": "view",
      "type": "function"
    },
    {
      "inputs": [
        {
          "internalType": "uint256",
          "name": "",
          "type": "uint256"
        }
      ],
      "name": "proposedTokens",
      "outputs": [
        {
          "internalType": "address",
          "name": "",
          "type": "address"
        }
      ],
      "stateMutability": "view",
      "type": "function"
    },
    {
      "inputs": [],
      "name": "router",
      "outputs": [
        {
          "internalType": "contract IBaseV1Router",
          "name": "",
          "type": "address"
        }
      ],
      "stateMutability": "view",
      "type": "function"
    },
    {
      "inputs": [
        {
          "internalType": "contract Garden",
          "name": "_garden",
          "type": "address"
        }
      ],
      "name": "setGarden",
      "outputs": [],
      "stateMutability": "nonpayable",
      "type": "function"
    },
    {
      "inputs": [],
      "name": "shares",
      "outputs": [
        {
          "internalType": "uint256",
          "name": "",
          "type": "uint256"
        }
      ],
      "stateMutability": "view",
      "type": "function"
    },
    {
      "inputs": [
        {
          "internalType": "address",
          "name": "",
          "type": "address"
        }
      ],
      "name": "tokenAccounts",
      "outputs": [
        {
          "internalType": "uint256",
          "name": "amount",
          "type": "uint256"
        },
        {
          "internalType": "uint256",
          "name": "shares",
          "type": "uint256"
        }
      ],
      "stateMutability": "view",
      "type": "function"
    },
    {
      "inputs": [
        {
          "internalType": "address",
          "name": "",
          "type": "address"
        }
      ],
      "name": "tokenIsProposed",
      "outputs": [
        {
          "internalType": "uint256",
          "name": "",
          "type": "uint256"
        }
      ],
      "stateMutability": "view",
      "type": "function"
    },
    {
      "inputs": [
        {
          "internalType": "address",
          "name": "newOwner",
          "type": "address"
        }
      ],
      "name": "transferOwnership",
      "outputs": [],
      "stateMutability": "nonpayable",
      "type": "function"
    },
    {
      "inputs": [
        {
          "internalType": "uint256",
          "name": "end",
          "type": "uint256"
        }
      ],
      "name": "updateUserAccount",
      "outputs": [],
      "stateMutability": "nonpayable",
      "type": "function"
    },
    {
      "inputs": [
        {
          "internalType": "address",
          "name": "user",
          "type": "address"
        }
      ],
      "name": "updatesMissing",
      "outputs": [
        {
          "internalType": "uint256",
          "name": "",
          "type": "uint256"
        }
      ],
      "stateMutability": "view",
      "type": "function"
    },
    {
      "inputs": [
        {
          "internalType": "address",
          "name": "",
          "type": "address"
        },
        {
          "internalType": "address",
          "name": "",
          "type": "address"
        }
      ],
      "name": "userAccounts",
      "outputs": [
        {
          "internalType": "uint256",
          "name": "",
          "type": "uint256"
        }
      ],
      "stateMutability": "view",
      "type": "function"
    },
    {
      "inputs": [
        {
          "internalType": "uint256",
          "name": "",
          "type": "uint256"
        },
        {
          "internalType": "address",
          "name": "",
          "type": "address"
        }
      ],
      "name": "voices",
      "outputs": [
        {
          "internalType": "uint256",
          "name": "",
          "type": "uint256"
        }
      ],
      "stateMutability": "view",
      "type": "function"
    },
    {
      "inputs": [
        {
          "internalType": "address",
          "name": "proposition",
          "type": "address"
        },
        {
          "internalType": "uint256",
          "name": "amount",
          "type": "uint256"
        }
      ],
      "name": "voteForNextTarget",
      "outputs": [],
      "stateMutability": "nonpayable",
      "type": "function"
    },
    {
      "inputs": [
        {
          "internalType": "address",
          "name": "",
          "type": "address"
        }
      ],
      "name": "votersEpoch",
      "outputs": [
        {
          "internalType": "uint256",
          "name": "",
          "type": "uint256"
        }
      ],
      "stateMutability": "view",
      "type": "function"
    },
    {
      "inputs": [
        {
          "internalType": "address",
          "name": "",
          "type": "address"
        }
      ],
      "name": "votersToken",
      "outputs": [
        {
          "internalType": "address",
          "name": "",
          "type": "address"
        }
      ],
      "stateMutability": "view",
      "type": "function"
    },
    {
      "inputs": [],
      "name": "wcanto",
      "outputs": [
        {
          "internalType": "address",
          "name": "",
          "type": "address"
        }
      ],
      "stateMutability": "view",
      "type": "function"
    },
    {
      "inputs": [],
      "name": "yang",
      "outputs": [
        {
          "internalType": "contract YinYang",
          "name": "",
          "type": "address"
        }
      ],
      "stateMutability": "view",
      "type": "function"
    },
    {
      "inputs": [],
      "name": "yin",
      "outputs": [
        {
          "internalType": "contract YinYang",
          "name": "",
          "type": "address"
        }
      ],
      "stateMutability": "view",
      "type": "function"
    },
    {
      "inputs": [],
      "name": "zen",
      "outputs": [
        {
          "internalType": "contract Zen",
          "name": "",
          "type": "address"
        }
      ],
      "stateMutability": "view",
      "type": "function"
    }
  ],
  "bytecode": {
    "object": "0x6080604052600c80546001600160a01b03191690553480156200002157600080fd5b5060405162003089380380620030898339810160408190526200004491620005d2565b600080546001600160a01b0319166001600160a01b03891690811782556040518992907f8be0079c531659141344cd1fd0a4f28419497f9722a3daafe3b4186f6b6457e0908290a350604051632210724360e11b815232600482015273ecf044c5b4b867cfda001101c617ecd347095b4490634420e486906024016020604051808303816000875af1158015620000df573d6000803e3d6000fd5b505050506040513d601f19601f8201168201806040525081019062000105919062000666565b50600185815560028790556003879055600d6020527f81955a0a11e65eac625c29e8882660bae4e165a75d72780094acae8ece9a29ee879055600e805491820181556000527fbb7b4a454dc3493923482f07822329ed19e8244eff582cc204f8554c3620c3fd0180546001600160a01b0319169055600780546001600160a01b038087166001600160a01b03199283161790925560088054868416908316179055600980548584169216919091179055604080516326d111f560e01b81529051918316916326d111f59160048082019260209290919082900301816000875af1158015620001f7573d6000803e3d6000fd5b505050506040513d601f19601f820116820180604052508101906200021d919062000680565b600560006101000a8154816001600160a01b0302191690836001600160a01b03160217905550806001600160a01b0316637aa497d96040518163ffffffff1660e01b81526004016020604051808303816000875af115801562000284573d6000803e3d6000fd5b505050506040513d601f19601f82011682018060405250810190620002aa919062000680565b600480546001600160a01b039283166001600160a01b03199182161782556006805485851692168217905560075460405163095ea7b360e01b81529283019190915260001960248301529091169063095ea7b3906044016020604051808303816000875af115801562000321573d6000803e3d6000fd5b505050506040513d601f19601f82011682018060405250810190620003479190620006a7565b5060085460405163095ea7b360e01b81526001600160a01b03838116600483015260001960248301529091169063095ea7b3906044016020604051808303816000875af11580156200039d573d6000803e3d6000fd5b505050506040513d601f19601f82011682018060405250810190620003c39190620006a7565b50600760009054906101000a90046001600160a01b03166001600160a01b031663999b93af6040518163ffffffff1660e01b8152600401602060405180830381865afa15801562000418573d6000803e3d6000fd5b505050506040513d601f19601f820116820180604052508101906200043e919062000680565b60405163095ea7b360e01b81526001600160a01b0383811660048301526000196024830152919091169063095ea7b3906044016020604051808303816000875af115801562000491573d6000803e3d6000fd5b505050506040513d601f19601f82011682018060405250810190620004b79190620006a7565b50600860009054906101000a90046001600160a01b03166001600160a01b031663999b93af6040518163ffffffff1660e01b8152600401602060405180830381865afa1580156200050c573d6000803e3d6000fd5b505050506040513d601f19601f8201168201806040525081019062000532919062000680565b60405163095ea7b360e01b81526001600160a01b0383811660048301526000196024830152919091169063095ea7b3906044016020604051808303816000875af115801562000585573d6000803e3d6000fd5b505050506040513d601f19601f82011682018060405250810190620005ab9190620006a7565b5050505050505050620006cb565b6001600160a01b0381168114620005cf57600080fd5b50565b600080600080600080600060e0888a031215620005ee57600080fd5b8751620005fb81620005b9565b80975050602088015195506040880151945060608801516200061d81620005b9565b60808901519094506200063081620005b9565b60a08901519093506200064381620005b9565b60c08901519092506200065681620005b9565b8091505092959891949750929550565b6000602082840312156200067957600080fd5b5051919050565b6000602082840312156200069357600080fd5b8151620006a081620005b9565b9392505050565b600060208284031215620006ba57600080fd5b81518015158114620006a057600080fd5b6129ae80620006db6000396000f3fe608060405234801561001057600080fd5b50600436106102325760003560e01c80637aa497d911610130578063a4b3dae4116100b8578063c8691b2a1161007c578063c8691b2a14610539578063d4923d4e14610574578063f2fde38b146105a6578063f887ea40146105b9578063fbddff37146105cc57600080fd5b8063a4b3dae4146104cd578063bbb14713146104ed578063bc6b4f3214610500578063c395a47414610513578063c8290efd1461052657600080fd5b80638e7ea5b2116100ff5780638e7ea5b21461048e5780638f8c06b714610496578063938b5f32146104a9578063a1bcd45a146104b2578063a2c71e7c146104c557600080fd5b80637aa497d9146104105780637edaea56146104235780637ef59aef1461045b5780638da5cb5b1461047b57600080fd5b80632ff75c59116101be5780634ff0876a116101825780634ff0876a146103c15780635175171e146103ca5780635478f468146103e257806356ba88b8146103ea578063622836fe146103fd57600080fd5b80632ff75c591461033d57806333b4d7e31461036857806339148c531461037b5780634641257d1461038e5780634b64218b1461039657600080fd5b80631d1d17e4116102055780631d1d17e4146102c35780631e34b2f7146102cc5780631f2ff92a146102d6578063259a9a8c1461031757806326d111f51461032a57600080fd5b806303314efa1461023757806304d6a7051461025357806315e5a1e51461027e5780631a638f3614610287575b600080fd5b61024060115481565b6040519081526020015b60405180910390f35b610240610261366004612604565b601060209081526000928352604080842090915290825290205481565b61024060025481565b6102ae610295366004612634565b6014602052600090815260409020805460019091015482565b6040805192835260208301919091520161024a565b610240600f5481565b6102d46105df565b005b6102ff6102e4366004612634565b6012602052600090815260409020546001600160a01b031681565b6040516001600160a01b03909116815260200161024a565b610240610325366004612634565b610626565b6005546102ff906001600160a01b031681565b61024061034b366004612658565b601560209081526000928352604080842090915290825290205481565b6102d4610376366004612686565b610652565b600c546102ff906001600160a01b031681565b6102d4610705565b6102406103a4366004612604565b601660209081526000928352604080842090915290825290205481565b61024060015481565b6103d26115e2565b604051901515815260200161024a565b600b54610240565b600a546102ff906001600160a01b031681565b6102d461040b3660046126b2565b6115fb565b6004546102ff906001600160a01b031681565b6104366104313660046126b2565b611608565b604080516001600160a01b03909416845260208401929092529082015260600161024a565b610240610469366004612634565b600d6020526000908152604090205481565b6000546102ff906001600160a01b031681565b6102ff611694565b6008546102ff906001600160a01b031681565b61024060035481565b6102d46104c03660046126b2565b61178e565b600e54610240565b6102406104db366004612634565b60136020526000908152604090205481565b6102d46104fb366004612634565b6117b3565b6007546102ff906001600160a01b031681565b6102ff6105213660046126b2565b61181e565b6009546102ff906001600160a01b031681565b61054c6105473660046126b2565b611848565b604080519485526001600160a01b03909316602085015291830152606082015260800161024a565b610587610582366004612634565b61195a565b604080516001600160a01b03909316835260208301919091520161024a565b6102d46105b4366004612634565b6119b3565b6006546102ff906001600160a01b031681565b6102d46105da366004612686565b611a47565b600b546105ed903390611c5d565b60006105f833611e81565b905060005b8151811015610622576106108282612079565b8061061a816126e1565b9150506105fd565b5050565b6001600160a01b038116600090815260186020526040812054600b5461064c91906126fa565b92915050565b600a546001600160a01b0316331461069b5760405162461bcd60e51b815260206004820152600760248201526610a3b0b93232b760c91b60448201526064015b60405180910390fd5b6009546040516308934a5f60e31b81526001600160a01b038481166004830152602482018490529091169063449a52f890604401600060405180830381600087803b1580156106e957600080fd5b505af11580156106fd573d6000803e3d6000fd5b505050505050565b61070d6115e2565b6107485760405162461bcd60e51b815260206004820152600c60248201526b216861727665737461626c6560a01b6044820152606401610692565b60006001546002544261075b91906126fa565b610765919061270d565b905080600154610775919061272f565b6002546107829190612746565b60025561078d611694565b600c80546001600160a01b0319166001600160a01b03929092169182179055601154600091825260146020526040909120600101546107cc9190612746565b600c80546001600160a01b039081166000908152601460209081526040808320600190810196909655805180820182526002548152815160608101835295548516808752600b805480875260108652848720928752918552838620548886015260118054898601528386019889529882018155855290517f0175b7a638427703f0dbe7bb9bbf987a2551717b34e79f33b5b1008d1fa01db9600490920291820155945180517f0175b7a638427703f0dbe7bb9bbf987a2551717b34e79f33b5b1008d1fa01dba870180546001600160a01b0319169190961617909455908301517f0175b7a638427703f0dbe7bb9bbf987a2551717b34e79f33b5b1008d1fa01dbb85015591909101517f0175b7a638427703f0dbe7bb9bbf987a2551717b34e79f33b5b1008d1fa01dbc909201919091559081905561090d90600e906125bd565b610917600061255a565b600c546001600160a01b031661096f57600b54610935903390611c5d565b6040516000815233907fc9695243a805adb74c91f28311176c65b417e842d5699893cef56d18bfa48cba906020015b60405180910390a250565b6007546040516370a0823160e01b81523060048201526000916001600160a01b0316906370a0823190602401602060405180830381865afa1580156109b8573d6000803e3d6000fd5b505050506040513d601f19601f820116820180604052508101906109dc9190612759565b1115610f05576040805160038082526080820190925260009160208201606080368337019050506007546040516370a0823160e01b81523060048201529192506001600160a01b0316906370a0823190602401602060405180830381865afa158015610a4c573d6000803e3d6000fd5b505050506040513d601f19601f82011682018060405250810190610a709190612759565b81600081518110610a8357610a83612788565b6020908102919091018101919091526006546007546040805163e8664bdd60e01b815290516001600160a01b0393841694635e1e63259461271094169263e8664bdd92600480830193928290030181865afa158015610ae6573d6000803e3d6000fd5b505050506040513d601f19601f82011682018060405250810190610b0a919061279e565b610b16906127106127c2565b6007546040516370a0823160e01b815230600482015261ffff92909216916001600160a01b03909116906370a0823190602401602060405180830381865afa158015610b66573d6000803e3d6000fd5b505050506040513d601f19601f82011682018060405250810190610b8a9190612759565b610b94919061272f565b610b9e919061270d565b60075460055460405160e085901b6001600160e01b031916815260048101939093526001600160a01b0391821660248401521660448201526064016040805180830381865afa158015610bf5573d6000803e3d6000fd5b505050506040513d601f19601f82011682018060405250810190610c1991906127f2565b5081600181518110610c2d57610c2d612788565b602090810291909101015260065481516001600160a01b0390911690635e1e63259083906001908110610c6257610c62612788565b60209081029190910101516005546004805460405160e086901b6001600160e01b0319168152918201939093526001600160a01b039182166024820152911660448201526064016040805180830381865afa158015610cc5573d6000803e3d6000fd5b505050506040513d601f19601f82011682018060405250810190610ce991906127f2565b5081600281518110610cfd57610cfd612788565b602090810291909101015260408051600280825260608201909252600091816020015b6040805160608101825260008082526020808301829052928201528252600019909201910181610d2057505060075481519192506001600160a01b0316908290600090610d6f57610d6f612788565b60209081029190910101516001600160a01b03918216905260055482519116908290600090610da057610da0612788565b6020026020010151602001906001600160a01b031690816001600160a01b031681525050600081600081518110610dd957610dd9612788565b602090810291909101015190151560409091015260055481516001600160a01b039091169082906001908110610e1157610e11612788565b60209081029190910101516001600160a01b039182169052600454825191169082906001908110610e4457610e44612788565b6020026020010151602001906001600160a01b031690816001600160a01b031681525050600081600181518110610e7d57610e7d612788565b60209081029190910101519015156040909101526006546001600160a01b0316637301e3c8838330610eb142610168612746565b6040518563ffffffff1660e01b8152600401610ed0949392919061287d565b600060405180830381600087803b158015610eea57600080fd5b505af1158015610efe573d6000803e3d6000fd5b5050505050505b6008546040516370a0823160e01b81523060048201526000916001600160a01b0316906370a0823190602401602060405180830381865afa158015610f4e573d6000803e3d6000fd5b505050506040513d601f19601f82011682018060405250810190610f729190612759565b111561132557604080516002808252606082018352600092602083019080368337019050506008546040516370a0823160e01b81523060048201529192506001600160a01b0316906370a0823190602401602060405180830381865afa158015610fe0573d6000803e3d6000fd5b505050506040513d601f19601f820116820180604052508101906110049190612759565b8160008151811061101757611017612788565b6020908102919091018101919091526006546008546040805163e8664bdd60e01b815290516001600160a01b0393841694635e1e63259461271094169263e8664bdd92600480830193928290030181865afa15801561107a573d6000803e3d6000fd5b505050506040513d601f19601f8201168201806040525081019061109e919061279e565b6110aa906127106127c2565b6008546040516370a0823160e01b815230600482015261ffff92909216916001600160a01b03909116906370a0823190602401602060405180830381865afa1580156110fa573d6000803e3d6000fd5b505050506040513d601f19601f8201168201806040525081019061111e9190612759565b611128919061272f565b611132919061270d565b6008546004805460405160e086901b6001600160e01b0319168152918201939093526001600160a01b039182166024820152911660448201526064016040805180830381865afa15801561118a573d6000803e3d6000fd5b505050506040513d601f19601f820116820180604052508101906111ae91906127f2565b50816001815181106111c2576111c2612788565b6020908102919091010152604080516001808252818301909252600091816020015b60408051606081018252600080825260208083018290529282015282526000199092019101816111e457505060085481519192506001600160a01b031690829060009061123357611233612788565b60209081029190910101516001600160a01b0391821690526004548251911690829060009061126457611264612788565b6020026020010151602001906001600160a01b031690816001600160a01b03168152505060008160008151811061129d5761129d612788565b60209081029190910101519015156040909101526006546001600160a01b0316637301e3c88383306112d142610168612746565b6040518563ffffffff1660e01b81526004016112f0949392919061287d565b600060405180830381600087803b15801561130a57600080fd5b505af115801561131e573d6000803e3d6000fd5b5050505050505b600454600c546001600160a01b039081169116146114fe57604080516001808252818301909252600091816020015b604080516060810182526000808252602080830182905292820152825260001990920191018161135457505060045481519192506001600160a01b03169082906000906113a3576113a3612788565b60209081029190910101516001600160a01b039182169052600c54825191169082906000906113d4576113d4612788565b6020026020010151602001906001600160a01b031690816001600160a01b03168152505060008160008151811061140d5761140d612788565b60209081029190910101519015156040918201526006546004805492516370a0823160e01b815230918101919091526001600160a01b039182169263f41766d89216906370a0823190602401602060405180830381865afa158015611476573d6000803e3d6000fd5b505050506040513d601f19601f8201168201806040525081019061149a9190612759565b600084306114aa42610168612746565b6040518663ffffffff1660e01b81526004016114ca9594939291906128e8565b600060405180830381600087803b1580156114e457600080fd5b505af11580156114f8573d6000803e3d6000fd5b50505050505b600c546040516370a0823160e01b81523060048201526001600160a01b03909116906370a0823190602401602060405180830381865afa158015611546573d6000803e3d6000fd5b505050506040513d601f19601f8201168201806040525081019061156a9190612759565b600c546001600160a01b0316600090815260146020526040902055600b54611593903390611c5d565b600c546001600160a01b03166000908152601460205260409081902054905133917fc9695243a805adb74c91f28311176c65b417e842d5699893cef56d18bfa48cba9161096491815260200190565b60006001546002546115f49190612746565b4211905090565b6116053382611c5d565b50565b6000806000600e848154811061162057611620612788565b6000918252602080832090910154600b548352601090915260408220600e80546001600160a01b039093169391928890811061165e5761165e612788565b60009182526020808320909101546001600160a01b03168352820192909252604001902054601154919450925090509193909250565b60008080805b600e5481101561178757600b546000908152601060205260408120600e805486939190859081106116cd576116cd612788565b60009182526020808320909101546001600160a01b03168352820192909252604001902054111561177557600b546000908152601060205260408120600e80549192918490811061172057611720612788565b60009182526020808320909101546001600160a01b03168352820192909252604001902054600e8054919450908290811061175d5761175d612788565b6000918252602090912001546001600160a01b031691505b8061177f816126e1565b91505061169a565b5092915050565b600b5461179c903390611c5d565b60006117a733611e81565b90506106228183612079565b6000546001600160a01b031633146117fc5760405162461bcd60e51b815260206004820152600c60248201526b15539055551213d49256915160a21b6044820152606401610692565b600a80546001600160a01b0319166001600160a01b0392909216919091179055565b600e818154811061182e57600080fd5b6000918252602090912001546001600160a01b0316905081565b600080600080600b8054905085106118a25760405162461bcd60e51b815260206004820152601a60248201527f687973746f727920696e646578206f7574206f662072616e67650000000000006044820152606401610692565b600b85815481106118b5576118b5612788565b906000526020600020906004020160000154600b86815481106118da576118da612788565b6000918252602090912060016004909202010154600b80546001600160a01b03909216918890811061190e5761190e612788565b906000526020600020906004020160010160010154600b888154811061193657611936612788565b90600052602060002090600402016001016002015493509350935093509193509193565b600080600061196884610626565b111561197957506000928392509050565b50506001600160a01b03908116600081815260126020908152604080832054600b5484526016835281842094845293909152902054911691565b6000546001600160a01b031633146119fc5760405162461bcd60e51b815260206004820152600c60248201526b15539055551213d49256915160a21b6044820152606401610692565b600080546001600160a01b0319166001600160a01b0383169081178255604051909133917f8be0079c531659141344cd1fd0a4f28419497f9722a3daafe3b4186f6b6457e09190a350565b600254600b5433600090815260136020526040902054829003611aff5760008181526016602090815260408083203384528252808320546012835281842054858552601084528285206001600160a01b039091168086529352908320805491938492611ab49084906126fa565b925050819055508160116000828254611acd91906126fa565b90915550611add90508583612746565b600084815260166020908152604080832033845290915290205550611b479050565b611b093382611c5d565b336000818152601360209081526040808320869055848352601682528083209383529290529081208054859290611b41908490612746565b90915550505b33600081815260126020908152604080832080546001600160a01b0319166001600160a01b038a169081179091558584526016835281842094845293825280832054858452601083528184209484529390915281208054839290611bac908490612746565b925050819055508060116000828254611bc59190612746565b909155505060095460405163079cc67960e41b8152336004820152602481018690526001600160a01b03909116906379cc679090604401600060405180830381600087803b158015611c1657600080fd5b505af1158015611c2a573d6000803e3d6000fd5b505050506001600160a01b0385166000908152600d60205260409020548314611c5657611c568561255a565b5050505050565b6001600160a01b0382166000908152601860205260409020545b81811015611e7c5760008181526016602090815260408083206001600160a01b038716845290915290205415611e465760008181526016602081815260408084206001600160a01b038816855290915282205491611cd6846001612746565b8152602080820192909252604090810160009081206001600160a01b038816825283528181209390935560179091529020600b805483908110611d1b57611d1b612788565b6000918252602080832060016004909302018201548454928301855593835280832090910180546001600160a01b0319166001600160a01b039485161790558382526016815260408083209387168352928152828220546015909152918120600b805491929185908110611d9157611d91612788565b60009182526020808320600160049093020191909101546001600160a01b03168352820192909252604001902054611dc99190612746565b6001600160a01b0384166000908152601560205260408120600b805491929185908110611df857611df8612788565b60009182526020808320600160049093020191909101546001600160a01b03908116845283820194909452604092830182209490945584815260168452818120928716815291909252908120555b611e51816001612746565b6001600160a01b03841660009081526018602052604090205580611e74816126e1565b915050611c77565b505050565b6001600160a01b0381166000908152601760205260408120546060919067ffffffffffffffff811115611eb657611eb6612772565b604051908082528060200260200182016040528015611f0157816020015b6040805160608101825260008082526020808301829052928201528252600019909201910181611ed45790505b50905060005b6001600160a01b038416600090815260176020526040902054811015611787576001600160a01b0384166000908152601760205260408120805483908110611f5157611f51612788565b9060005260206000200160009054906101000a90046001600160a01b031690506040518060600160405280826001600160a01b03168152602001826001600160a01b031663313ce5676040518163ffffffff1660e01b8152600401602060405180830381865afa158015611fc9573d6000803e3d6000fd5b505050506040513d601f19601f82011682018060405250810190611fed9190612924565b60ff1681526001600160a01b0380841660008181526014602081815260408084206001810154968e1685526015835281852095855294825290922054908252915493019261203b919061272f565b612045919061270d565b81525083838151811061205a5761205a612788565b6020026020010181905250508080612071906126e1565b915050611f07565b600082828151811061208d5761208d612788565b6020908102919091010151516040516370a0823160e01b81523060048201526001600160a01b03909116906370a0823190602401602060405180830381865afa1580156120de573d6000803e3d6000fd5b505050506040513d601f19601f820116820180604052508101906121029190612759565b90508083838151811061211757612117612788565b602002602001015160400151111561214d578083838151811061213c5761213c612788565b602002602001015160400181815250505b336000908152601560205260408120845190919085908590811061217357612173612788565b6020026020010151600001516001600160a01b03166001600160a01b0316815260200190815260200160002054601460008585815181106121b6576121b6612788565b6020026020010151600001516001600160a01b03166001600160a01b03168152602001908152602001600020600101546121f091906126fa565b6014600085858151811061220657612206612788565b6020026020010151600001516001600160a01b03166001600160a01b031681526020019081526020016000206001018190555082828151811061224b5761224b612788565b6020026020010151604001516014600085858151811061226d5761226d612788565b6020026020010151600001516001600160a01b03166001600160a01b03168152602001908152602001600020600001546122a791906126fa565b601460008585815181106122bd576122bd612788565b602090810291909101810151516001600160a01b03168252818101929092526040908101600090812093909355338352601590915281208451829086908690811061230a5761230a612788565b602090810291909101810151516001600160a01b0316825281810192909252604090810160009081209390935533835260179091529020805461234f906001906126fa565b8154811061235f5761235f612788565b60009182526020808320909101543383526017909152604090912080546001600160a01b03909216918490811061239857612398612788565b600091825260208083209190910180546001600160a01b0319166001600160a01b0394909416939093179092553381526017909152604090208054806123e0576123e0612947565b600082815260209020810160001990810180546001600160a01b0319169055019055825183908390811061241657612416612788565b6020026020010151600001516001600160a01b031663a9059cbb3385858151811061244357612443612788565b6020026020010151604001516040518363ffffffff1660e01b81526004016124809291906001600160a01b03929092168252602082015260400190565b6020604051808303816000875af115801561249f573d6000803e3d6000fd5b505050506040513d601f19601f820116820180604052508101906124c3919061295d565b50336001600160a01b03167f9b1bfa7fa9ee420a16e124f794c35ac9f90472acc99140eb2f6447c714cad8eb84848151811061250157612501612788565b60200260200101516000015185858151811061251f5761251f612788565b60200260200101516040015160405161254d9291906001600160a01b03929092168252602082015260400190565b60405180910390a2505050565b6002546001600160a01b039091166000818152600d6020526040812092909255600e805460018101825592527fbb7b4a454dc3493923482f07822329ed19e8244eff582cc204f8554c3620c3fd90910180546001600160a01b0319169091179055565b508054600082559060005260206000209081019061160591905b808211156125eb57600081556001016125d7565b5090565b6001600160a01b038116811461160557600080fd5b6000806040838503121561261757600080fd5b823591506020830135612629816125ef565b809150509250929050565b60006020828403121561264657600080fd5b8135612651816125ef565b9392505050565b6000806040838503121561266b57600080fd5b8235612676816125ef565b91506020830135612629816125ef565b6000806040838503121561269957600080fd5b82356126a4816125ef565b946020939093013593505050565b6000602082840312156126c457600080fd5b5035919050565b634e487b7160e01b600052601160045260246000fd5b6000600182016126f3576126f36126cb565b5060010190565b8181038181111561064c5761064c6126cb565b60008261272a57634e487b7160e01b600052601260045260246000fd5b500490565b808202811582820484141761064c5761064c6126cb565b8082018082111561064c5761064c6126cb565b60006020828403121561276b57600080fd5b5051919050565b634e487b7160e01b600052604160045260246000fd5b634e487b7160e01b600052603260045260246000fd5b6000602082840312156127b057600080fd5b815161ffff8116811461265157600080fd5b61ffff828116828216039080821115611787576117876126cb565b805180151581146127ed57600080fd5b919050565b6000806040838503121561280557600080fd5b82519150612815602084016127dd565b90509250929050565b600081518084526020808501945080840160005b8381101561287257815180516001600160a01b03908116895284820151168489015260409081015115159088015260609096019590820190600101612832565b509495945050505050565b6080808252855190820181905260009060209060a0840190828901845b828110156128b65781518452928401929084019060010161289a565b505050838103828501526128ca818861281e565b6001600160a01b039690961660408501525050506060015292915050565b85815284602082015260a06040820152600061290760a083018661281e565b6001600160a01b0394909416606083015250608001529392505050565b60006020828403121561293657600080fd5b815160ff8116811461265157600080fd5b634e487b7160e01b600052603160045260246000fd5b60006020828403121561296f57600080fd5b612651826127dd56fea2646970667358221220435d7f1eb59aa0a3eb6f24fe1e7b92fbe942d8f97b22dacdd8dbd0043647ea4664736f6c63430008120033",
    "linkReferences": {}
  },
  "methodIdentifiers": {
    "claimAllVoterShares()": "1e34b2f7",
    "claimVoterShare(uint256)": "a1bcd45a",
    "currentTarget()": "39148c53",
    "epochDuration()": "4ff0876a",
    "epochStart()": "15e5a1e5",
    "garden()": "56ba88b8",
    "getHistory(uint256)": "c8691b2a",
    "getHistoryLength()": "5478f468",
    "getProposition(uint256)": "7edaea56",
    "getPropositionsLength()": "a2c71e7c",
    "getUserVote(address)": "d4923d4e",
    "getWinner()": "8e7ea5b2",
    "harvest()": "4641257d",
    "isHarvestable()": "5175171e",
    "mintZen(address,uint256)": "33b4d7e3",
    "note()": "26d111f5",
    "numberProposedTokens()": "1d1d17e4",
    "origin()": "938b5f32",
    "owner()": "8da5cb5b",
    "participations(uint256,address)": "4b64218b",
    "proposedTokens(uint256)": "c395a474",
    "router()": "f887ea40",
    "setGarden(address)": "bbb14713",
    "shares()": "03314efa",
    "tokenAccounts(address)": "1a638f36",
    "tokenIsProposed(address)": "7ef59aef",
    "transferOwnership(address)": "f2fde38b",
    "updateUserAccount(uint256)": "622836fe",
    "updatesMissing(address)": "259a9a8c",
    "userAccounts(address,address)": "2ff75c59",
    "voices(uint256,address)": "04d6a705",
    "voteForNextTarget(address,uint256)": "fbddff37",
    "votersEpoch(address)": "a4b3dae4",
    "votersToken(address)": "1f2ff92a",
    "wcanto()": "7aa497d9",
    "yang()": "8f8c06b7",
    "yin()": "bc6b4f32",
    "zen()": "c8290efd"
  },
  "id": 25
}